:020000040800F2
:10000000F80B002061020008AD4A0008BD4300085B
:1000100000000000000000000000000000000000E0
:10002000000000000000000000000000B34A0008CB
:100030000000000000000000B14A0008054B000865
:1000400073020008730200087302000873020008BC
:1000500073020008730200087302000873020008AC
:10006000730200087302000873020008730200089C
:10007000730200087302000873020008C14B0008F5
:1000800073020008730200087302000800000000F9
:10009000730200087302000873020008730200086C
:1000A000730200087302000873020008730200085C
:1000B000730200087302000873020008730200084C
:1000C00000F002F800F0BDF80CA030C80838241881
:1000D0002D18671EA246AB4654465D46AC4201D180
:1000E00000F0AFF87E460F3EB6460FCC01263342F5
:1000F00000D0FB1A3343A246AB461847106E0000EF
:10010000306E0000103A02D378C878C1FAD852078E
:1001100001D330C830C101D504680C6070470000BD
:100120000023002400250026103A01D378C1FBD813
:10013000520700D330C100D50B60704710B56E294F
:1001400002D100F02BFB10BD702902D100F065FC3C
:1001500010BD662902D105F07FFF10BD652902D1CF
:1001600005F07AFF10BD672902D105F075FF10BDBB
:10017000612902D105F078FF10BD03681B0A01D385
:1001800080231943692902D100F0D2FA10BD6429F5
:1001900002D100F0CDFA10BD752902D100F0C8FAE5
:1001A00010BD6F2902D100F0E3FB10BD782902D108
:1001B00000F020FC10BDE92902D100F07FFB10BD4A
:1001C000E42902D100F07AFB10BDF52902D100F03C
:1001D00075FB10BDEF2902D100F0D6FB10BDF82948
:1001E00002D100F015FC10BD0368DB0901D38023A8
:1001F0001943632902D101F0F8F810BD732902D127
:1002000001F0FBF810BDE32902D101F005F910BDA2
:10021000F32902D101F008F910BD002010BD1FB56F
:1002200001F062F904000020002105F0FFFE401CEF
:1002300060600020002105F0E3FEE0601FBD10B506
:1002400010BD01F02AF91146FFF7E9FF05F0E8FBC0
:1002500001F0BEFC03B4FFF7F2FF03BC01F008FDA0
:100260000748804707480047FEE7FEE7FEE7FEE74E
:10027000FEE7FEE704480549054A064B70470000C3
:10028000BD4B0008C1000008F8050020F80B002055
:10029000F8070020F80700204343514330B55C18AD
:1002A000010C130C0D4692B25D4380B251432C19E0
:1002B000054655430A0C09044D1962415843010C87
:1002C00000044019514130BDFEB5044610460D46AC
:1002D000184373D0A6468C460020A41A01469D41BF
:1002E00067D36646002701243D46B61A9D4102D3D6
:1002F00013463A462124654676462F04360C3E4383
:100300002D0CB61A9D4104D3150C1B042B4312046B
:100310001034654676462F06360A3E432D0AB61A35
:100320009D4104D3150E1B022B431202083465466F
:1003300076462F0736093E432D09B61A9D4104D350
:10034000150F1B012B431201241D65467646AF078E
:10035000B6083E43AD08B61A9D4104D3950F9B00E5
:100360002B439200A41C65467646EF0776083E4371
:100370006D08B61A9D411AD392185B41641C16E0B1
:100380000018764665464941B71A9D410191009093
:1003900009D36046B11A98418E4684460098019967
:1003A0000025401C6941DD0752082A435B08641E92
:1003B000E6D57246634603B0F0BDFFE7204628430A
:1003C00007D00020C0430146C046C04622462B4607
:1003D000F1E700200146F7E70FB41CB5084B06AA69
:1003E0007B4469460090059800F0F1F9044600202E
:1003F000694600F0FFF920461CBC08BC04B0184751
:100400001104000001E004C0091F0429FBD28B077E
:1004100001D50280801CC90700D0027070470029F6
:100420000BD0C30702D00270401C491E022904D31E
:10043000830702D50280801C891EE3E70022EEE7D5
:100440000022DFE7002203098B422CD3030A8B42F0
:1004500011D300239C464EE003460B433CD40022BC
:1004600043088B4231D303098B421CD3030A8B42CE
:1004700001D394463FE0C3098B4201D3CB01C01A9C
:10048000524183098B4201D38B01C01A5241430967
:100490008B4201D34B01C01A524103098B4201D355
:1004A0000B01C01A5241C3088B4201D3CB00C01AC2
:1004B000524183088B4201D38B00C01A524143083A
:1004C0008B4201D34B00C01A5241411A00D201465F
:1004D0005241104670475DE0CA0F00D049420310F8
:1004E00000D3404253409C46002203098B422DD347
:1004F000030A8B4212D38901FC2212BA030A8B42EF
:100500000CD3890192118B4208D3890192118B423D
:1005100004D389013AD0921100E08909C3098B42C2
:1005200001D3CB01C01A524183098B4201D38B0105
:10053000C01A524143098B4201D34B01C01A5241A8
:1005400003098B4201D30B01C01A5241C3088B42ED
:1005500001D3CB00C01A524183088B4201D38B00D8
:10056000C01A5241D9D243088B4201D34B00C01A62
:100570005241411A00D201465241104663465B1077
:1005800001D34042002B00D54942704763465B10BF
:1005900000D3404201B50549002802DC491C08404F
:1005A00000E00846C046C04602BD00BFFFFFFF7F17
:1005B00070477047704700000121C90501234118A9
:1005C00042001B06D3185B0E0AD0C1100722D206C8
:1005D000891840075242D14201D55200891870470C
:1005E000090208D50146002A03D0C10FC90700201F
:1005F000704710467047420202D0002002497047FF
:10060000072109050143F4E70000F87F1F22030CCE
:1006100002D10F2200041CD0030E01D10002083ABF
:10062000030F01D10001121F830F01D18000921E20
:10063000002801DB4000521ED20551180212511849
:100640001922904004D3491C002801D149084900CF
:1006500008467047C10FC90700D0404201229207E7
:100660001143D3E701218907D0E770B504468569B6
:100670000068C10601D5302600E02026C00707D05B
:1006800070BD62683046A1689047206A401C2062B5
:100690006D1EF6D570BD70B5044685690078C0073B
:1006A00007D170BD6268A16820209047206A401C75
:1006B00020626D1EF6D570BD09684A0501D540B2AD
:1006C0007047C905FCD500B2704709684A0501D5D5
:1006D000C0B27047C905FCD580B2704770B50C46F2
:1006E0000546012A05D02878800600D5EA6900234E
:1006F00002E0012305E05B1C934202D2E05C00288B
:10070000F9D1A869E618C01AA861286AC018286239
:100710002846FFF7AAFF04E06A682078A968641CED
:100720009047B442F8D32846FFF7B5FF70BD0000EC
:10073000F7B5002575291068009914A611D0FFF7A8
:10074000BBFF002802DA404211A608E000990968C0
:100750008A0701D50FA602E0490704D50EA6012598
:1007600001E0FFF7B2FF009F0024243704E000F00F
:1007700080FE30313955641C0028F8D12B463246B2
:100780002146009800F057FAFEBD0000000000006E
:100790002D0000002B0000002000000011680268FE
:1007A000006A530501D5087009E0D30501D508801A
:1007B00005E0130602D5C21705C100E0086001205C
:1007C0007047000001694A1C02610878704700B553
:1007D0008FB002910021059105490193794403915D
:1007E00011460490684600F025F90FB000BD0000E6
:1007F000E5FFFFFF0A681070521C0A607047000096
:10080000F7B50446154686B02B487844002703C840
:100810003E460090019111E007986A467100415AE6
:1008200002A800F005FE411C07D02178890603D5F7
:10083000E269391891420ED83F18761C207880065C
:1008400002D5E069B84206DDAE42E5DB07987100EB
:10085000405A0028E0D1A069C01BA0612046FFF7E4
:1008600004FF154878445A3803C8009000200191CD
:1008700016E041006A460798415A02A800F0D8FDE8
:100880000590401C0AD0002505E0626802A8A16816
:10089000405D90476D1C05988542F6D30498401C36
:1008A000B0420490E5DB206AC01920622046FFF7C1
:1008B000F2FE09B0F0BD00006A580000F7B5D21D85
:1008C0000025D20815A6D200F52905CA11D0002AA4
:1008D00005DA00214042914111A60A4608E000993C
:1008E00009688B0701D50FA602E0490701D50EA6BE
:1008F00001251146009F0024243704E000F05EF932
:1009000030323A55641C02460A43F7D12B46324630
:100910002146009800F08FF9FEBD000000000000A5
:100920002D0000002B0000002000000070B50446E0
:100930000021243408E05507D2086D0F3035655486
:100940005D072A43DB08491C15461D43F3D10468A3
:10095000002310A2250708D520252C400C4304D0E5
:10096000C46901230CA2641EC46100F064F970BD67
:1009700010B5044621461068FFF7A7FE0023024683
:100980002046FFF7D3FF10BDD21DD108C9000CC906
:10099000CCE700000000000030000000F8B50F4672
:1009A0000188090502D5224C7C4402E0204C7C449D
:1009B0000E3405460021243508E016071209360FCB
:1009C000A65D6E541E0732431B09491C16461E4382
:1009D000F3D1224604780023240705D5702F06D0D2
:1009E000002901D00223113200F025F9F8BD0123BE
:1009F0001032F9E770B504460D4621461068FFF73E
:100A000064FE0023024629462046FFF7C7FF70BD5B
:100A1000D21DD308DB000CCBC0E730B40368202420
:100A20001268234303600823C36130BC0023B5E789
:100A3000D4560000F3B50446002081B02062204661
:100A4000E1688847002872D0252802D06268A16832
:100A5000ABE0594F00267F442046E16888472028B4
:100A6000054608DB312D06D2781920380078002899
:100A700001D00643F0E7B00701D5042086430020EB
:100A8000E0610746A0612A2D0AD0284605F0B0FA99
:100A9000002827D0B8000019303D0090856119E08A
:100AA0000298BA00121902C8916102902046E168CA
:100AB0008847012F054617D1E06900281FDA20205A
:100AC00086431CE000980A21806948430099401938
:100AD000303888612046E1688847054605F088FA85
:100AE0000028EFD1012F0AD02E2D08D12046E16831
:100AF00088470546202006437F1C022FC3DBA069E0
:100B0000002803DA4042A06101200643F00701D02B
:100B1000102086436C2D0BD0682D09D04C2D3CD075
:100B20006A2D38D0742D38D07A2D36D016E040E0BA
:100B3000E1682F4620468847B842054609D16C2F08
:100B400029D001208002E1680643204688470546F7
:100B500004E06C2F1DD0FF2001300643002D28D06B
:100B600028464138192803D80120C0020643203501
:100B7000204626602946029A1646FFF7DFFA00282B
:100B800010D001280BD0F61DF008C00008300290EC
:100B900055E74020E1E78020D5E70020D3E7361D68
:100BA00002964CE762682846A1689047206A401C7C
:100BB00044E7206AFEBD00004E5600000B4670B5AB
:100BC000024689078008084319469D08141AA9415E
:100BD00025090807054308092C194841250A01067B
:100BE0000D43010A2C194141200C0D0428430D0C22
:100BF00000194D41002140194D41C00869070843C3
:100C0000E908840F8D002543840024184D412419E0
:100C10006D41121BAB4107E00925ED432C11521920
:100C200063410024401C61411C460A250026551BD7
:100C3000B441F1D270BDFFB504460D4681B02430F9
:100C400000902168880604D51022E0699143216054
:100C500000E00120A84201DD471B00E000270498C6
:100C6000A1697A191018081AA0612078C00602D468
:100C70002046FFF7FAFC002608E003986268A168A6
:100C8000805D9047206A401C761C20620498864252
:100C9000F3DB2078C0060AD52046FFF7E6FC06E025
:100CA0006268A16830209047206A401C2062384664
:100CB0007F1E0028F4DC07E000986268A168405DB0
:100CC0009047206A401C206228466D1E0028F3DCF5
:100CD0002046FFF7E0FC2078000602D5022005B090
:100CE000F0BD0120FBE70000FFB50C461E468FB0AB
:100CF00003CA089009914F007D0D00D16D1E00219F
:100D000008460020C0460321099A89050840002AA8
:100D100003DA8200801840080840800D01280A90FC
:100D200002DD0020C0430A90089807430DD0F04828
:100D3000F049281848430714189800281DD0754218
:100D4000291E1DDD0A9842421BE01898012802D096
:100D50000020302104E00020F24305E02154401C33
:100D6000B042FBDB30460022189B002121540F9932
:100D70008B600A60486013B0F0BDBD1B6D1CDFE7DF
:100D80000A9A002900DA69420BA800F0F5FB0BABC8
:100D900007CB03AB07C30899099800F059FC6B46D1
:100DA00007C30146D4480918002D00910BDDD24934
:100DB00003980A9A49424018002303A90390684601
:100DC00000F0B6FE08E003990A9A0023081803A968
:100DD0000390684600F056FE6B4607C30004000C03
:100DE00003D00020C043410800E01046189A002AB2
:100DF00003D00022009215461EE0751E05D4FFF7B1
:100E0000DDFE303262556D1EF9D50122084307968A
:100E100002D000227F1C04E02078302801D100227B
:100E20007F1E002A069787D01EE0112D07DAFFF7F4
:100E3000C5FE303262556D1C02460A43F5D10843A7
:100E400003D00098002819D00EE00021681E05E0AC
:100E5000235C625C63542254401E491C8142F7DBD0
:100E6000A81B401E07950690079A18990020A054C9
:100E70000F98079B069A81600CC07CE71126002022
:100E8000189059E7D21DF0B50D460446D10893B02D
:100E9000C90003C90C900D9105F094F802460D9815
:100EA000C00F01D02D2007E02068810701D52B203D
:100EB00002E04007C00F4001032A0F9001D0072A2B
:100EC00005DB03462946204600F012FB0EE12078A0
:100ED000800601D5E76900E006272846652D04D085
:100EE000662814D0672D69D12DE00020112F0090C5
:100EF00001DB112300E07B1C0CAA03A910A8FFF75B
:100F0000F3FE1199002610987D1C0E9142E00120FD
:100F10003B460CAAC0070B900120009003A910A823
:100F2000FFF7E2FE119D12981099002600280E95F9
:100F300001D1781C0D18781B02D446427D1C761E08
:100F4000E81B00903AE0012F00DA01270020112F62
:100F5000009001DD112300E03B460CAA03A910A874
:100F6000FFF7C2FE11993D46109800260E91217898
:100F700009070BD40E99A94200DA0D4603A9012DE9
:100F800004DD4A19203AD27F302A06D0B84201DA6D
:100F9000011D04DA012100910FE06D1EEFE700282A
:100FA00002DC86192D1A03E0411CA94200DD0D4622
:100FB000801B401C00900120C0070B902078000788
:100FC00005D40098A84202DB0020C0430090694687
:100FD0000020C8720B98012102AF0337C90788426D
:100FE00025D0022010902B2011900B9800280BDAAE
:100FF00040420B902D20119006E00B9800F039FA3A
:1010000030317F1E0B9039701099481E00291090C6
:10101000F3DC0B980028F0D111987F1E38702088DF
:10102000000501D5452000E065207F1E387001A82D
:10103000C01BC01D0B900F98002800D00120411943
:101040000098C01709180B980818A169081A401EC3
:10105000A0612078C00602D42046FFF706FB0F9857
:10106000002805D06268A1689047206A401C206271
:101070002078C00625D52046FFF7F7FA21E0002E9C
:1010800007DB0E98B04204DD03A86268805DA168AA
:1010900002E06268A16830209047206A761C401CFC
:1010A00020620098401E002800900AD100F01CFA2F
:1010B000C06862680168405CA1689047206A401C73
:1010C000206228466D1E0028D9DC07E06268387867
:1010D000A1687F1C9047206A401C20620B99481E23
:1010E00000290B90F2DC2046FFF7D5FA032042E6F8
:1010F00001FCFFFF104D0000E1DFFFFFD21DF0B546
:1011000004460D46D0088DB0C000466807683146D9
:10111000384604F057FF0246F00F01D02D2307E0B8
:101120002068810701D52B2302E04007C00F43014F
:101130006846002B037001D0012000E00020032A44
:101140000A9001D0072A04DB2946204600F0D0F996
:101150002DE12078800601D40D2500E0E5697000BE
:10116000400D0D2D01904BDA300D00210B900846FB
:101170000020C046032189050840002E05DA8200C0
:101180008018C20F1018401008408015012801DD9A
:101190000020C043A9000023182906D39C460A4614
:1011A0000123183A1B07D34003E001221205CA406D
:1011B00094460C31202902D33A46203900E03246C9
:1011C0008A40002802DD002A06D119E0002817D144
:1011D0000121C9078A4213D3194663467F185E412D
:1011E000002806D10120C007824202D10846874369
:1011F0009E430B98310D814202D00198401C019012
:101200002088000502D57149794402E06F4979448C
:1012100019396B460A9830221A540A980A7C401CE5
:101220001A54401C0A900198002801DC302000E08C
:1012300031201872019A0120002A02D0644BD21882
:1012400004E072003A4302D0614A521C0192002D20
:1012500002DC2278120703D56A462E205072022043
:101260000022864694460CE032033601120F6D1EB2
:101270008B5C02AA13546246521C401C9446052AF9
:1012800001DA002DF0DC002202AE08E03B0F3F0146
:10129000CB5C521C6D1E3354401C082A01DA002D11
:1012A000F4DC23689A0601D511E0401E704504DD88
:1012B0003218203AD27F302AF7D0002807DD3218C2
:1012C000203AD27F2E2A02D11A0700D4401E002DC8
:1012D00003DD3E223254401C6D1E497C315401997D
:1012E000401C002906DA2D21471C31540198404248
:1012F000019003E02B21471C315401987D21C90046
:10130000884206DBFFF7A8F83030F0557F1C0191CA
:1013100001E0642808DB01986421FFF79DF8303074
:10132000F0557F1C019101E00A2806DB01980A2193
:10133000FFF792F83030F0557F1C01980A21FFF733
:101340008BF83031F1550A98A1697F1C7A19101871
:10135000081AA0612078C00602D42046FFF785F95C
:10136000216A6E460A980818206204E062683078A4
:10137000A168761C90470A98401E0A90401CF5D13F
:101380002078C00602D52046FFF76FF902AE09E0CB
:101390003078761C3E280DD06268A1689047206A9C
:1013A000401C20627F1EF3D22046FFF774F90DB077
:1013B0000320F0BD206A4019206203E06268A16842
:1013C000302090476D1EEDD3F8E70000C04E0000BE
:1013D00001FCFFFF10B54369002B02D0C046C04698
:1013E00001E0FFF77BF9012010BD1278014624319E
:1013F0000A7000224A700122ECE711680022D243F1
:10140000E8E710B54369002B02D0C046C04601E0B2
:10141000FFF7F6F9012010BD1288014624318284BD
:101420000022C2840122ECE711680022D243E8E7DF
:10143000F8B516460C46054600F04EF80368FF2046
:101440000230C05C012807D0FF2C0FD8185D00289F
:101450000CD001202C70F8BDFF33324621460833F2
:101460001868C71828460023B847F8BD0020C043B5
:10147000F8BD01468008081A02091018020A10185F
:10148000020C1018C008820012185200891A01E0DC
:10149000401C0A390A29FBD27047754600F0A0FBB0
:1014A000AE46050069465346C008C000854618B0E0
:1014B00020B5FEF7DFFE60BCB64600260027C0C59B
:1014C000C0C5C0C5C0C5C0C5C0C5C0C5C0C5403DFC
:1014D000490849008D46704710B500F005F8001D19
:1014E00010BD00BF494B0000004870473800002085
:1014F000F8B51F46044601230068DB0203260146B7
:101500001840072A05DB002801D017A506E017A51B
:1015100004E0002801D016A500E016A510208143A4
:101520002160A069C01E002FA06101D0401EA061F3
:101530002046FFF79AF8002F09D038466268A16864
:101540009047206A401C2062C01C206206E0206A8E
:10155000FAE762682878A1686D1C9047761EF8D279
:101560002046FFF798F8F8BD4E414E006E616E00C0
:10157000494E4600696E6600F7B516468AB0334894
:1015800078446C4603467C33C06F5A689B680DC430
:101590002E487844763003AC0DC80DC43720C00106
:1015A000081837211B30FEF757FF05460C46803DD3
:1015B0001B3C02D56442012000E000200027099076
:1015C00010E0E0070CD00C202049784379443246E3
:1015D0004C3941186846012300F054FA6B4607C3A2
:1015E00064107F1C002CECD1184F7F442E3F16E076
:1015F000E80712D02001C0190EC80691089307927F
:101600000068F04201D1981908903246012306A9DA
:1016100003A800F037FA03AB07C36D10641C002D5C
:10162000E6D10998002806D032466946012303A86E
:1016300000F07EFA05E001233246694603A800F077
:1016400021FA0A9B07C30DB0F0BD00005C4B0000FF
:10165000034640000A4610B5400D0BD00121C907D2
:101660000F24A40200191C0364082143540D2143D4
:10167000D20207E000210120F2E7D40F4900214304
:101680005200401E0029F8DADB0FDB07184310BDBB
:10169000FFB50D46144685B04868516804F07AFCE1
:1016A00000910190A868A16804F074FC0291039075
:1016B000A868616804F06EFC029A121882420292D5
:1016C00001D2012000E00020019A0B18D218002856
:1016D000019202D08A4202D903E08A4201D201205B
:1016E00000E000200099081800906868A16804F0E4
:1016F00051FC029A12188242029201D2012000E0AB
:101700000020019A0B18D2180028019202D08A42B8
:1017100002D903E08A4201D2012000E000200099B2
:1017200008180090286821684000490040084908CE
:101730004018FA49471814E001994000C90F0843BE
:101740000090019802994000C90F08430190029847
:1017500003994000C90F08430290039840007F1E80
:10176000039000980028E7DA0898002801D0EC4E92
:1017700000E00026B74201DA012000E00020002846
:1017800004902AD0F71BF806C00E15D0029B20212A
:10179000091A039A8B401A430392029A019BC24092
:1017A0008B401A430292019A009BC2408B400099E1
:1017B0001A430192C14000917B110DD06F46032066
:1017C000C11A03D500218200B95003E08A008100CC
:1017D000BA587A50401EF3D537460398029900282C
:1017E00000D00120014308980291002808460CD03F
:1017F000002800D001200199019A490508430121E0
:10180000D20AC902D202019200E001210E9B0122FC
:10181000D207012B02D0002B03D013E0002807D100
:1018200020E0904204D890420CD1019B0B4209D099
:10183000019B5918019105D10099491C009101D1D2
:101840007F1C009200280DD0102108460020C046C1
:101850000498002806D00F98002803D008210846D5
:101860000020C04628682168019B009A4840C10FAB
:101870000598C90739430EC009B0F0BDFFB587B060
:10188000099A08980899536892684068896896464A
:101890000022039317469446089A12685300099A47
:1018A0005B081268520052089A1A9E4BD4180A9A82
:1018B000002A01D0352200E04022069200220123B6
:1018C00015460492DB07059324E0002D05D17546EB
:1018D0000346039E4D1BB34109D375466646039BE1
:1018E000491B049D9841059B7519AC465F416346B1
:1018F0003B4308D0059B049EDD0776082E435B081A
:101900000496059301E0521E641EC50FED074918A9
:101910004041521C069B9A42D7DB002D04D17546EC
:10192000039A6B1A824101D203200CE0039A0B4602
:101930006B404240134303D0014303D0012002E037
:10194000022000E0002061460191002100970291F1
:101950000A99002905D0614640020143704B01916C
:1019600002E08007002302909C4201DA012000E09F
:10197000002007003AD01A1BD006C00E15D0029DD9
:101980002021019C091AC5408C402543029C8C40B3
:1019900000D001242543019C0295009DC4408D4048
:1019A00000992C430194C140009154111DD06D4603
:1019B0000221002202290CD10320001B07E000288D
:1019C00004DB8600AE59002E00D00122401C032803
:1019D000F5DB081B02D588002A5004E08000285857
:1019E00010438A00A850491EE3D51C460A980028D7
:1019F00002980CD0002800D001200199019A4905D5
:101A000008430121D20AC902D202019200E0012159
:101A1000109B0122D207012B02D0002B03D013E030
:101A2000002807D11FE0904204D890420CD1019BBE
:101A30000B4209D0019B5918019105D10099491C0D
:101A4000009101D1641C009200280CD0102108469E
:101A50000020C046002F06D01198002803D008218E
:101A600008460020C04608980999019A009B006822
:101A700009684840C10F0798C907214382600AC01E
:101A80000BB0F0BD00B585B0019300920A46014647
:101A9000002302A8FFF7FCFD02A807C805B000BD9F
:101AA000FFB50A461F4685B00799019301230091AF
:101AB000014602A8FFF7ECFD02990398049ECA0FA5
:101AC0004900D20700920F22490892028C1A002185
:101AD000002800DB0C46450013486D08844214D3EF
:101AE000079A002A04DA441E0026104DF64302E04D
:101AF00004460D460E46102108460020C046002F21
:101B000003D0042108460020C0462005E90A084306
:101B1000009908436905F20A1143ADE602C0FFFFD0
:101B2000013C0000FF3F0000FF070000FFFFFF7FB8
:101B300000B585B0019300920A460146002302A831
:101B4000FFF79CFE02A807C8A8E7FFB50A461F4694
:101B500085B00799019301230091014602A8FFF780
:101B60008DFE02990398049ECA0F4900D207009285
:101B70000F22490892028C1A0021002800DB0C4633
:101B8000450011486D08844214D3079A002A04DAEC
:101B9000441E00260D4DF64302E004460D460E4657
:101BA000102108460020C046002F03D0042108461B
:101BB0000020C0462005E90A08430099084369054A
:101BC000F20A114358E60000FF070000FFFFFF7F05
:101BD00010B50446C046C0462046FEF73BFB10BD8C
:101BE0000048704718000020024670B50A4392076B
:101BF0002AD11E4DEE0104C808C9541B9443344039
:101C000017D0D0B2D9B2401A2106014310D190B2F8
:101C100099B2401A210401430AD110021902000AA4
:101C2000090A401A2102014302D1100E190E401A6E
:101C300070BD9A42DFD010BA19BA884201D901208A
:101C400070BD0020C04370BD02780B78401C491C59
:101C5000002A09D09A4207D102780B78401C491C0F
:101C6000002A01D09A42EFD0D01A70BD01010101C3
:101C700001491820ABBEFEE72600020070470000B5
:101C800080B582B00021084604F086F80B48006851
:101C9000FEF792FC02460B46094801900949FEF7FF
:101CA0009BFB019808494A680968012304F046F93A
:101CB000064804F081F802B080BDC046C804002088
:101CC00078000020F16E000800000020CC04002005
:101CD00081B0EFF3108072B60090FFE7FEE70000DE
:101CE00080B584B0039000F0A7F9029003980190AA
:101CF0000198401C002806D0FFE7094801780198A8
:101D000040180190FFE7FFE700F096F90299401AAA
:101D10000199884201D2FFE7F6E704B080BDC046D2
:101D20000C0000208CB00B900A91002009900890C4
:101D30000790FFE70A9800680999C840002800D179
:101D400062E10A980068099A0121914008400890D0
:101D50000898002800D153E10A9840680321084000
:101D6000012807D0FFE70A984068032108400228AD
:101D70002CD1FFE70B988068079009984000032159
:101D800081400798884307900A98C16809984000E5
:101D9000814007980843079007980B9988600B9833
:101DA000406807900998012181400798884307906F
:101DB0000A98406810210840010909988140079855
:101DC0000843079007980B994860FFE70A98406816
:101DD00003210840032816D0FFE70B98C06807903E
:101DE00009984000032181400798884307900A988A
:101DF0008168099840008140079808430790079838
:101E00000B99C860FFE70A98406803210840022840
:101E100020D1FFE70B980999C90889004018006A8A
:101E2000079009984007C00E0F218140079888430A
:101E300007900A98016909984007C00E81400798E9
:101E40000843079007980B99099AD20892008918BD
:101E50000862FFE70B98006807900998410003208B
:101E600002468A400799914307910A9949680140BF
:101E700009984000814007980843079007980B99FC
:101E800008600A9880798007002800D1B7E05F4990
:101E900008680122104308600998032188435C49BF
:101EA0004058079009988007000F0F21814007983C
:101EB000884307900B9805210907884203D1FFE763
:101EC0000020069038E00B985249884203D1FFE782
:101ED000012005902DE00B984F49884203D1FFE780
:101EE0000220049022E00B984C49884203D1FFE77E
:101EF0000320039017E00B984949884203D1FFE77C
:101F0000042002900CE00B99464A0520062300931A
:101F10009142019001D00098019001980290FFE752
:101F200002980390FFE703980490FFE70498059058
:101F3000FFE705980690FFE7069909988007000FCC
:101F40008140079808430790079809990322914315
:101F50002F4A8850344800680790089907988843AA
:101F600007900A988079C006002805D5FFE70899F0
:101F7000079808430790FFE707982B4908602B480C
:101F80000068079008990798884307900A98807915
:101F90008006002805D5FFE70899079808430790B1
:101FA000FFE70798214908602148006807900899D1
:101FB0000798884307900A9880798007002805D5FC
:101FC000FFE70899079808430790FFE70798184923
:101FD0000860184800680790089907988843079098
:101FE0000A988079C007002805D0FFE7089907986C
:101FF00008430790FFE707980E490860FFE7FFE7EF
:102000000998401C099095E60CB0704734100240C6
:10201000080001400004005000080050000C00506F
:1020200000100050001C0050080401400C04014046
:102030000404014000040140014800687047C046A4
:10204000F005002010B583B0019000910198412166
:10205000405C202839D1FFE7FFE701984021405C30
:10206000012804D1FFE702A90220087031E001999C
:10207000402201208854FFE7FFE7019941222420F4
:102080008854019801680868012398430860019802
:10209000016808681C03A0430860009C019801685F
:1020A00008682043086001980168086818430860C0
:1020B000019920208854FFE701994022002088548C
:1020C000FFE702A90020087003E002A902200870BF
:1020D000FFE702A8007803B010BD84B00290019120
:1020E00002984121405C20283FD1FFE7FFE702989A
:1020F0004021405C012804D1FFE703A902200870B9
:1021000037E00299402201208854FFE7FFE7029957
:1021100041222420885402980168086801239843CA
:102120000860029800680068009000980F2109027A
:10213000884300900198010200980843009000989D
:1021400002990968086002980168086818430860E5
:10215000029920208854FFE70299402200208854E9
:10216000FFE703A90020087003E003A9022008701C
:10217000FFE703A8007804B07047000080B582B084
:1021800000900098002804D1FFE701A90120087001
:1021900074E000984121405C002808D1FFE70099D5
:1021A000402200208854009800F09CF9FFE7009935
:1021B0004122242088540098016808680122904335
:1021C0000860009948680F231B0698430968086156
:1021D000009801688868D203904388600098C068BE
:1021E000012808D1FFE7009988680122D203104333
:1021F0000968886007E000998868212292021043EC
:1022000009688860FFE70098C068022806D1FFE7E8
:10221000009801680120C0024860FFE7009801684B
:102220004868184A1043486000980168C86801224D
:10223000D3039843C860009908694B6918438B69B8
:102240001B0218430968C8600099C8690B6A1843E3
:1022500009680860009801680868104308600099E0
:1022600000204864009A41232021D154009908633A
:1022700000994222885401A90870FFE701A800785C
:1022800002B080BD00800002B0B58AB0044610984C
:102290000F980E9D089407AC218006A90A8005A915
:1022A0000B8004A9088008984121405C202800D0B8
:1022B0000EE10E98002805D0FFE704A8008800284A
:1022C00007D1FFE7089A01204102516409A908706B
:1022D00002E1FFE708984021405C012804D1FFE7B4
:1022E00009A902200870F7E00899402201208854CB
:1022F000FFE7FFE7FFF7A0FE03900898039900911E
:102300000122D103192302F0FFF9002804D0FFE7CE
:1023100009A901200870DFE0089941222120885492
:1023200008994222402088540899002048640E9958
:10233000089A51620499089A518508994863089847
:1023400007A9098806AA128805AB1B88109C039D63
:102350000195009402F050F900280AD0FFE7FFE74A
:102360000899402200208854FFE709A9012008703D
:10237000B2E00898408D000A00280FD0FFE70899C6
:10238000FF200885089807A909882822825C002375
:10239000009301231B0602F08DF90FE00898408D91
:1023A00008990885089807A909882822825C0023D3
:1023B000009301235B0602F07DF9FFE7FFE7089831
:1023C0001099039A02F045FA002804D0FFE709A902
:1023D0000120087080E00899486A007809688862DE
:1023E0000899486A401C48620899488D401E4885F3
:1023F0000899088D401E08850898408D00283AD01D
:10240000FFE70898008D002835D1FFE70898109B5A
:10241000039900918021002202F076F9002804D06F
:10242000FFE709A90120087056E00898408D000ACE
:1024300000280FD0FFE70899FF200885089807A912
:1024400009882822825C0023009301231B0602F0E6
:1024500031F90FE00898408D08990885089807A978
:1024600009882822825C0023009301235B0602F086
:1024700021F9FFE7FFE7FFE70898408D00289ED18C
:10248000FFE708981099039A02F093F9002804D006
:10249000FFE709A9012008701EE0089801682020C4
:1024A000C86108990A6851680D4B19405160089934
:1024B000412288540899422200208854FFE7089955
:1024C000402200208854FFE709A90020087003E09B
:1024D00009A902200870FFE709A800780AB0B0BD7A
:1024E00000E800FE80B588B00790002006900590B7
:1024F00004900390029007980068124988421FD107
:10250000FFE7FFE71048026804210A430260006801
:10251000084001900198FFE70320029012210391E7
:1025200000210491059007200690084802A9FFF7B2
:10253000F9FB3E4908680122920710430860FFE753
:1025400008B080BD007800402C1002400008005008
:102550002D48027802490868801808607047C04614
:10256000F005002080B582B001A9002008700B4959
:102570000868402210430860032000F011F800288A
:1025800004D0FFE701A90120087002E000F040F844
:10259000FFE701A8007802B080BDC04600200240DD
:1025A00080B584B002901748006801901648017801
:1025B0007D20C000FDF746FF01460198FDF742FF70
:1025C00001F07EF8002804D0FFE703A9012008707D
:1025D00014E00298032809D8FFE702990022D043AB
:1025E00000F031F802980949086003E003A90120CE
:1025F000087003E003A900200870FFE703A8007833
:1026000004B080BD080000200C0000201000002055
:1026100005490868012210430860E7490868120765
:10262000104308607047C046341002403810024022
:1026300080B582B0014601A801700021405603F028
:1026400097F902B080BD80B584B0034603A803703B
:102650000291019200214056029903F09FF904B0C3
:1026600080BD000080B586B0049001A900200870EC
:102670000498006820210840202806D0FFE704982D
:1026800040780007002800D41FE1049800788006F5
:10269000002801D5FFE7FFE70498407800070028ED
:1026A00001D5FFE7FFE7C4480068C000002809D44F
:1026B000FFE7C14A1168012003071943116001A90E
:1026C0000870FFE7BD480068C00500281DD4FFE77B
:1026D000BA4908680122120210430860FFF7ACFCF7
:1026E0000390FFE7B5480068C00500280CD4FFE759
:1026F000FFF7A2FC0399401A652804D3FFE705A958
:102700000320087053E1EDE7FFE7AD4800680321BF
:102710000A051040029002980499496811408842C5
:1027200009D1FFE702980499896803221205114034
:10273000884214D0FFE70498406803210904084048
:1027400088420BD1FFE79E4800688003002804D52B
:10275000FFE705A90120087029E1FFE7FFE7994895
:10276000006803210904084002900298002851D013
:10277000FFE7029804994968032212041140884235
:1027800007D0FFE7049800682021084020280FD0D8
:10279000FFE70298049989680322120411408842D5
:1027A00038D0FFE7049840780007002832D5FFE7CB
:1027B00084490868032212049043029008680122A9
:1027C000D2041043086008689043086002980860CB
:1027D00002A84078C00700281BD0FFE7FFF72CFCB9
:1027E0000390FFE777480068012149020840400A4A
:1027F00000280DD1FFE7FFF71FFC0399401A73492A
:10280000884204D3FFE705A903200870CFE0E9E779
:10281000FFE7FFE7049840780007002821D5FFE78D
:10282000FFE7FFE704988068032109040840884215
:102830000BD1FFE762490868032213059843049A05
:1028400092681A4080180860FFE7FFE704988268E2
:102850000320000402405B49086810430860FFE75A
:10286000FFE7049800788006002821D5FFE7FFE7FE
:10287000FFE70498406803210904084088420BD10F
:10288000FFE74F490868032213059843049A5268EA
:102890001A4080180860FFE7FFE7049842680320A9
:1028A000000402404749086810430860FFE7FFE75B
:1028B00001A80078012807D1FFE73F4908680122F5
:1028C000120790430860FFE7FFE704980078C0070D
:1028D000002809D0FFE73C49086803229043049A86
:1028E000D26810430860FFE704980078800700284A
:1028F00009D5FFE7344908680C229043049A12690D
:1029000010430860FFE704980078400700280AD5C4
:10291000FFE72D490868032292029043049A526906
:1029200010430860FFE704980078000700280AD5E4
:10293000FFE725490868032212039043049A92692D
:1029400010430860FFE704984078C00700280AD0C9
:10295000FFE71D490868032212049043049AD269D4
:1029600010430860FFE704980078400600280AD565
:10297000FFE715490868012292069043049A526ABB
:1029800010430860FFE704980078000600280AD585
:10299000FFE70D490868032292049043049A126AE3
:1029A00010430860FFE705A900200870FFE705A8AD
:1029B000007806B080BDC04638100240007000406C
:1029C00000100240501002404C10024089130000D9
:1029D00080B586B0049003910498002804D1FFE7E5
:1029E00005A90120087062E10398B3490968012232
:1029F0001140884221D9FFE7AF490868012290437E
:102A0000039A10430860FFF717FB0290FFE7AA48FC
:102A1000006801210840039988420DD0FFE7FFF7C5
:102A20000BFB0299401AA549884204D3FFE705A988
:102A3000032008703BE1EAE7FFE70498007880078D
:102A4000002809D5FFE7B1490868F0229043049AAD
:102A5000926810430860FFE704980078C0070028D8
:102A600000D1BCE00498406802280ED1FFE7F3488B
:102A70000068012149040840400C002804D1FFE708
:102A800005A90120087012E134E004984068032889
:102A90000ED1FFE7E9480068012149060840400ED1
:102AA000002804D1FFE705A901200870FFE020E01D
:102AB0000498406801280DD1FFE7E0480068042130
:102AC00008408008002804D1FFE705A9012008700C
:102AD000EDE00DE0D9480068012149020840400AB4
:102AE000002804D1FFE705A901200870DFE0FFE717
:102AF000FFE7FFE7CF49086803229043049A526832
:102B000010430860FFF798FA029004984068022882
:102B100016D1FFE7FFE7C74800680C2108400828E6
:102B20000DD0FFE7FFF788FA0299401A63498842FF
:102B300004D3FFE705A903200870B8E0EBE74DE0F8
:102B400004984068032816D1FFE7FFE7B9480068FA
:102B50000C2108400C280DD0FFE7FFF76DFA029911
:102B6000401A5649884204D3FFE705A9032008709C
:102B70009DE0EBE731E004984068012816D1FFE7BB
:102B8000FFE7AC4800680C21084004280DD0FFE79F
:102B9000FFF752FA0299401A4849884204D3FFE7E6
:102BA00005A90320087082E0EBE715E0FFE7A148E4
:102BB00000680007800F00280DD0FFE7FFF73CFA00
:102BC0000299401A3D49884204D3FFE705A9032032
:102BD00008706CE0EBE7FFE7FFE7FFE7FFE703982C
:102BE0003549096801221140884221D2FFE7324964
:102BF000086801229043039A10430860FFF71CFA0B
:102C00000290FFE72C4800680121084003998842A0
:102C10000DD0FFE7FFF710FA0299401A27498842C2
:102C200004D3FFE705A90320087040E0EAE7FFE7C7
:102C300004980078400700280AD5FFE77D49086816
:102C4000072212029043049AD26810430860FFE7FB
:102C500004980078000700280BD5FFE7754908683D
:102C60000722D2029043049A1269D20010430860EE
:102C7000FFE700F04FF86F490968C9B20A09104927
:102C8000895CC840124908600E480068FFF788FC5C
:102C9000014601A801700078002804D0FFE70198E0
:102CA00005A9087003E005A900200870FFE705A842
:102CB000007806B080BDC0460020024089130000A5
:102CC0007461000810000020014800687047C04689
:102CD0000800002080B5FFF7F7FF56490968072272
:102CE000120211400A0A0A49895CC84080BDC046E8
:102CF00080B5FFF7E9FF4F4909680722D20211406A
:102D0000CA0A0349895CC84080BDC0460C10024015
:102D10008461000880B58AB0464800680990099827
:102D20000C21084003900C2875D80398810001A05D
:102D300040588746152E0008172E0008172E000849
:102D4000172E0008692D0008172E0008172E0008FE
:102D5000172E0008832D0008172E0008172E0008D4
:102D6000172E0008892D000834480068C006002886
:102D700003D5FFE73348049002E031480490FFE7B1
:102D800055E03148049052E009980F218904084029
:102D9000810C2948405C0890099803218905084066
:102DA000800D401C079023480068C00300280DD503
:102DB000FFE70898244A002302931946FDF76CFAAE
:102DC000029B079AFDF780FA069020E01B480068F6
:102DD000C00600280DD5FFE708981A4A0023019382
:102DE0001946FDF759FA019B079AFDF76DFA06900F
:102DF0000CE00898124A002300931946FDF74CFA9C
:102E0000009B079AFDF760FA0690FFE7FFE7069838
:102E100004900CE0FFE70D48006880B2400B05907D
:102E20000598411C01208840C0030490FFE70498E6
:102E30000AB080BD0C100240E86E0008001002408D
:102E40000024F40000093D0000127A000410024042
:102E500010B58AB008900898002805D1FFE709A9A5
:102E60000120087000F015FCFD4801680C2211409B
:102E70000491006801210904084003900898007833
:102E8000C007002800D18DE0049808280AD0FFE789
:102E900004980C2819D1FFE70398012109048842FE
:102EA00013D1FFE7EF480068012149040840400CB6
:102EB000002809D0FFE708984068002804D1FFE700
:102EC00009A901200870E4E36BE0FFE70898406877
:102ED00001210904884207D1FFE7E249086801227D
:102EE00012041043086021E0089840680521090495
:102EF00088420BD1FFE7DB4908680122930418439D
:102F0000086008681204104308600EE0D54908689C
:102F10000122130498430860086818400290029840
:102F20000868920490430860FFE7FFE7FFE708980E
:102F3000406800281AD0FFE7FFF77EF80790FFE708
:102F4000C8480068012149040840400C00280CD101
:102F5000FFE7FFF771F80799401A652804D3FFE7E8
:102F600009A90320087094E3EAE719E0FFF764F881
:102F70000790FFE7BB480068012149040840400C66
:102F800000280CD0FFE7FFF757F80799401A65288B
:102F900004D3FFE709A9032008707AE3EAE7FFE713
:102FA000FFE7FFE7089800788007002800D4A8E032
:102FB0000898C068069006A800788006002809D501
:102FC000FFE7A84A1068202108431060069888434C
:102FD0000690FFE70498042808D0FFE704980C281F
:102FE00041D1FFE7039800283DD1FFE79D480068E5
:102FF000042108408008002808D0FFE70698002830
:1030000004D1FFE709A90120087042E39649086846
:103010001F2212029043089A12691202104308609C
:103020009049086809229043069A10430860FFE718
:10303000FFF770FE8A490968C9B20A098B49895CA1
:10304000C8408B4908608B480068FFF7A9FA014621
:1030500005A801700078002804D0FFE7059809A9A9
:10306000087016E34CE0069800282AD0FFE77D4957
:10307000086809229043069A10430860FEF7DCFFB7
:103080000790FFE77748006804210840800800287F
:103090000CD1FFE7FEF7D0FF0799401A032804D3AD
:1030A000FFE709A903200870F3E2EBE76E4908681F
:1030B0001F2212029043089A1269120210430860FC
:1030C0001DE068490868012290430860FEF7B4FFDC
:1030D0000790FFE763480068042108408008002843
:1030E0000CD0FFE7FEF7A8FF0799401A032804D386
:1030F000FFE709A903200870CBE2EBE7FFE7FFE752
:10310000FFE708980078C006002800D4A1E00498E2
:10311000002845D1FFE753480068012149020840D3
:10312000400A002809D0FFE70898C069002804D1A8
:10313000FFE709A901200870ABE24B4908680722A4
:1031400052039043089A526A104308600868FF22AD
:1031500012069043089A126A1206801808600898AE
:10316000406A400B411C01208840C0033C4909686B
:10317000C9B20A093D49895CC8403D4908603D48DB
:103180000068FFF70DFA014605A8017000780028D5
:1031900004D0FFE7059809A908707AE2FFE757E035
:1031A0000898C069002832D0FFE72E49086801223C
:1031B000120210430860FEF73FFF0790FFE729481F
:1031C0000068012149020840400A00280CD1FFE7AD
:1031D000FEF732FF0799401A032804D3FFE709A935
:1031E0000320087055E2EAE71F49086807225203E6
:1031F0009043089A526A104308600868FF2212063A
:103200009043089A126A1206801808601FE0154958
:1032100008680122120290430860FEF70DFF079034
:10322000FFE710480068012149020840400A0028D1
:103230000CD0FFE7FEF700FF0799401A032804D3DC
:10324000FFE709A90320087023E2EAE7FFE7FFE7A9
:10325000FFE708980078000700284FD50CE0C0462B
:103260000C1002400010024004100240746100087B
:1032700008000020100000200898406900281ED097
:10328000FFE7FD490868012210430860FEF7D4FEFD
:103290000790FFE7F848006802210840400800282E
:1032A0000CD1FFE7FEF7C8FE0799401A032804D3A4
:1032B000FFE709A903200870EBE1EBE71DE0F949FE
:1032C0000868012290430860FEF7B6FE0790FFE70A
:1032D000F448006802210840400800280CD0FFE7AD
:1032E000FEF7AAFE0799401A032804D3FFE709A9AD
:1032F00003200870CDE1EBE7FFE7FFE708980078CF
:103300004007002800D4BBE001A900200870E6486F
:103310000068C000002809D4FFE7E34A11680120D3
:1033200003071943116001A90870FFE7DF4800682F
:10333000C00500281DD4FFE7DC49086801221202FD
:1033400010430860FEF778FE0790FFE7D748006853
:10335000C00500280CD4FFE7FEF76EFE0799401A5F
:10336000652804D3FFE709A90320087091E1EDE780
:10337000FFE7FFE70898806801210902884207D12A
:10338000FFE7C849086801221202104308602EE0D6
:103390000898806800280BD1FFE7C249086801221D
:1033A00013029843086008689202904308601DE089
:1033B000089880680521090288420BD1FFE7B949C6
:1033C000086801229302184308600868120210433B
:1033D00008600AE0B34908680122130298430860B4
:1033E0000868920290430860FFE7FFE7FFE7FFE706
:1033F0000898806800281BD0FFE7FEF71DFE0790A5
:10340000FFE7A8480068012149020840400A002857
:103410000DD1FFE7FEF710FE0799401AA449884234
:1034200004D3FFE709A90320087032E1E9E71AE0B5
:10343000FEF702FE0790FFE79A4800680121490263
:103440000840400A00280DD0FFE7FEF7F5FD079978
:10345000401A9749884204D3FFE709A9032008705E
:1034600017E1E9E7FFE701A80078012807D1FFE7A6
:103470008D4908680122120790430860FFE7FFE7C3
:10348000089800788006002854D5FFE708988069DE
:10349000002829D0FFE7FFE786490868012210438A
:1034A0000860864908681043086083490868520329
:1034B00010430860FFE7FEF7BFFD0790FFE77D4878
:1034C000006802210840400800280CD1FFE7FEF701
:1034D000B3FD0799401A032804D3FFE709A9032085
:1034E0000870D6E0EBE724E0FFE7724908680122A4
:1034F0009043086070490868520390430860FFE7F2
:10350000FEF79AFD0790FFE76A480068022108402D
:10351000400800280CD0FFE7FEF78EFD0799401AFF
:10352000032804D3FFE709A903200870B1E0EBE703
:10353000FFE7FFE70898806A002800D1A5E004981B
:103540000C2872D0FFE70898806A02284CD1FFE768
:10355000534908680122120690430860FEF76CFD8B
:103560000790FFE74E480068012149060840400ED9
:1035700000280CD0FFE7FEF75FFD0799401A0328EB
:1035800004D3FFE709A90320087082E0EAE7434972
:103590000868FD2212049043089BDA6A1C6B2243E0
:1035A0005B6B1A43104308603D490868012212060C
:1035B00010430860FEF740FD0790FFE738480068B9
:1035C000012149060840400E00280CD1FFE7FEF714
:1035D00033FD0799401A032804D3FFE709A9032004
:1035E000087056E0EAE71FE02D490868012212063C
:1035F00090430860FEF720FD0790FFE72848006829
:10360000012149060840400E00280CD0FFE7FEF7D4
:1036100013FD0799401A032804D3FFE709A90320E3
:10362000087036E0EAE7FFE72EE00898806A012894
:1036300004D1FFE709A9012008702AE017480068B3
:10364000039003980121090408400899C96A884237
:1036500014D1FFE703980F21890408400899096BEA
:1036600088420BD1FFE70398032189050840089998
:10367000496B884206D001E05010024009A90120A0
:10368000087006E0FFE7FFE7FFE709A900200870E0
:10369000FFE709A800780AB010BDC0460C10024030
:1036A00000100240501002403810024000700040EC
:1036B000891300000810024020000140341002402D
:1036C00080B582B00190019801F0F4F902B080BD9C
:1036D00085B003900291FFE703983821405C0128F0
:1036E00004D1FFE704A90220087053E003993822AF
:1036F00001208854FFE7FFE703993922022088540C
:103700000398006840680190039800688068009002
:10371000019870218843019002980168019808433C
:103720000190019803990968486003980068012195
:103730008907884212D0FFE7039800687E498842D3
:103740000CD0FFE7039800687C49884206D0FFE769
:10375000039800687A4988420ED1FFE700988021DB
:1037600088430090029841680098084300900098B0
:10377000039909688860FFE703993922012088547A
:10378000FFE70399382200208854FFE704A90020AE
:103790000870FFE704A8007805B0704780B582B0D4
:1037A00000900098002804D1FFE701A901200870CB
:1037B00030E000983921405C002808D1FFE70099EB
:1037C000382200208854009800F028F8FFE700997C
:1037D000392202208854009901C901F0F9F90099B1
:1037E0003E2201208854FFE700993A2201208854A4
:1037F00000993B22885400993C22885400993D222C
:103800008854FFE7009939220120885401A900203B
:103810000870FFE701A8007802B080BD80B58AB0CB
:103820000990002008900790069005900490099850
:10383000006801218907884228D1FFE714490868F8
:10384000012210430860FFE71248026801210A4381
:1038500002600068084003900398FFE7012004908D
:103860000220059000210191069107910890052002
:10387000000704A9FEF756FA019A0F20029011469C
:10388000FEF7E1FE0298FEF7D3FEFFE70AB080BD27
:10389000381002402C10024083B001900198392169
:1038A000405C012804D0FFE702A9012008703EE037
:1038B000019939220220885401980268D0680121B8
:1038C0000843D060019800688907884212D0FFE75A
:1038D00001980068184988420CD0FFE701980068F9
:1038E0001649884206D0FFE70198006814498842CB
:1038F00012D1FFE701980068806807210840009016
:103900000098062807D0FFE701980168086801229F
:1039100010430860FFE706E001980168086801228B
:1039200010430860FFE702A900200870FFE702A823
:10393000007803B07047C046000400400008014012
:103940000014014080B586B00490039102A90020C4
:103950000870FFE704983821405C012804D1FFE794
:1039600005A902200870AEE004993822012088548D
:10397000FFE7FFE704993922022088540498006881
:103980008068019001987721884301900198FF2178
:103990000902884301900198049909688860039896
:1039A00000680090002875D0FFE70098102871D0BB
:1039B000FFE7009820286DD0FFE70098302869D0F5
:1039C000FFE70098402858D0FFE7009850283AD0E9
:1039D000FFE70098602843D0FFE7009870280DD0DB
:1039E000FFE7009801210903884206D0FFE700980D
:1039F00001214903884216D053E056E0049800683C
:103A0000039B99685A68DB6801F059F904980068CB
:103A100080680190019877210843019001980499EA
:103A20000968886041E004980068039B99685A68B7
:103A3000DB6801F044F90498016888680122920368
:103A40001043886031E004980068039A5168D26896
:103A500001F065F904980068502101F04BF924E069
:103A600004980068039A5168D26801F0E1F904985B
:103A70000068602101F03EF917E004980068039A9D
:103A80005168D26801F04BF904980068402101F0B8
:103A900031F90AE0049800680399096801F02AF9ED
:103AA00003E002A901200870FFE7049939220120F0
:103AB0008854FFE70499382200208854FFE70298D1
:103AC00005A90870FFE705A8007806B080BD0000D2
:103AD00080B582B001901D48007800280BD1FFE727
:103AE0001B4800681C4908601C49002008801749D1
:103AF0000120087027E015480078012822D1FFE74F
:103B00001348016813480160006813490968884236
:103B100014D9FFE70F4800681049098809044018C4
:103B20000D490968411A0E48016001680D48FCF70B
:103B300089FCFCF797FD0C490860FFE7034900206A
:103B40000870FFE7FFE702B080BDC046E80500202F
:103B500034000040A00400209C040020A4040020A5
:103B6000EC05002040FCEA00C804002080B586B0C7
:103B700004900391029201A900200870FFE70498C5
:103B80003821405C012804D1FFE705A90220087014
:103B900082E00499382201208854FFE7FFE7029869
:103BA000002816D1FFE704980068039B19685A683B
:103BB000DB6801F0DDF80498016888690C22904305
:103BC0008861039882680498016888691043886155
:103BD00058E00298042818D1FFE704980068039B76
:103BE00019685A68DB6801F04DF904980168886922
:103BF000032292029043886103988068020204982D
:103C000001688869104388613BE00298082816D152
:103C1000FFE704980068039B19685A68DB6801F0A5
:103C200068F904980168C8690C229043C861039838
:103C3000826804980168C8691043C86120E002984E
:103C40000C2818D1FFE704980068039B19685A688C
:103C5000DB6801F084F904980168C86903229202C4
:103C60009043C86103988068020204980168C8699B
:103C70001043C86103E001A901200870FFE7FFE7D6
:103C8000FFE7FFE7FFE70499382200208854FFE7A9
:103C9000019805A90870FFE705A8007806B080BD67
:103CA00080B582B000900098002804D1FFE701A9F8
:103CB0000120087030E000983921405C002808D1CC
:103CC000FFE70099382200208854009800F028F877
:103CD000FFE70099392202208854009901C900F0B9
:103CE00077FF00993E2201208854FFE700993A228D
:103CF0000120885400993B22885400993C22885422
:103D000000993D228854FFE7009939220120885408
:103D100001A900200870FFE701A8007802B080BD6B
:103D200081B0009001B0704780B58EB00C900B91BF
:103D30000AA9002008700B98002805D1FFE70C980D
:103D40003A21405C07901CE00B98042805D1FFE75E
:103D50000C983B21405C069010E00B98082805D198
:103D6000FFE70C983C21405C059004E00C983D2155
:103D7000405C0590FFE705980690FFE706980790DE
:103D8000FFE7079908A801700078012804D0FFE731
:103D90000DA901200870AEE00B98002805D1FFE7BF
:103DA0000C993A22022088541EE00B98042806D170
:103DB000FFE70C993B2202208854049012E00B98F4
:103DC000082806D1FFE70C993C2202208854039072
:103DD00005E00C993D22022088540390FFE70398E8
:103DE0000490FFE70498FFE70B9802900C283BD85B
:103DF0000298810001A040588746C046313E000825
:103E0000693E0008693E0008693E00083F3E000820
:103E1000693E0008693E0008693E00084D3E000802
:103E2000693E0008693E0008693E00085B3E0008E4
:103E30000C980168C86802221043C86018E00C980A
:103E40000168C86804221043C86011E00C9801683A
:103E5000C86808221043C8600AE00C980168C86866
:103E600010221043C86003E00AA901200870FFE790
:103E70000AA8007800283AD1FFE70C9800680B994F
:103E80000122019200F002FF01990C980068890755
:103E9000884212D0FFE70C980068194988420CD07C
:103EA000FFE70C9800681749884206D0FFE70C9896
:103EB00000681549884212D1FFE70C9800688068B5
:103EC0000721084009900998062807D0FFE70C98B9
:103ED00001680868012210430860FFE706E00C98BB
:103EE00001680868012210430860FFE7FFE70A98AD
:103EF0000DA90870FFE70DA800780EB080BDC04680
:103F000000040040000801400014014080B582B068
:103F100001900198006800690221084040080028CB
:103F200028D0FFE701980068C068022108404008D7
:103F300000281ED0FFE7019801680220C0430861F5
:103F4000019901200876019800688069800700289F
:103F500004D0FFE70198FFF7BBFD06E0019800F0F1
:103F6000D4F8019800F0D5F8FFE701990020087611
:103F7000FFE7FFE701980068006904210840800816
:103F8000002829D0FFE701980068C0680421084094
:103F9000800800281FD0FFE7019801680420C04373
:103FA00008610199022008760198006880698005FF
:103FB000800F002804D0FFE70198FFF789FD06E095
:103FC000019800F0A2F8019800F0A3F8FFE701992A
:103FD00000200876FFE7FFE70198006800690821E4
:103FE0000840C008002828D0FFE701980068C06892
:103FF00008210840C00800281ED0FFE7019801688A
:104000000820C043086101990420087601980068DF
:10401000C0698007002804D0FFE70198FFF758FD2A
:1040200006E0019800F071F8019800F072F8FFE7DF
:10403000019900200876FFE7FFE701980068006912
:10404000102108400009002829D0FFE701980068E6
:10405000C06810210840000900281FD0FFE7019820
:1040600001681020C0430861019908200876019872
:104070000068C0698005800F002804D0FFE7019820
:10408000FFF726FD06E0019800F03FF8019800F0E8
:1040900040F8FFE7019900200876FFE7FFE7019865
:1040A00000680069C007002811D0FFE70198006888
:1040B000C068C007002809D0FFE701980168012007
:1040C000C0430861019800F029F8FFE7FFE7019875
:1040D00000680069402108408009002813D0FFE7EC
:1040E00001980068C068402108408009002809D074
:1040F000FFE7019801684020C0430861019800F083
:1041000017F8FFE7FFE702B080BD81B0009001B073
:10411000704781B0009001B07047000081B00090FE
:1041200002490888401C088001B07047A4040020A0
:1041300081B0009001B0704780B582B000900098C7
:10414000002804D1FFE701A90120087048E0009889
:104150008069002801D0FFE700E0FFE70098C06F0A
:10416000002808D1FFE700997822002088540098A1
:1041700000F03AF8FFE700992420C867009801682A
:104180000868012290430860009801F0D5F80128E2
:1041900004D1FFE701A90120087021E00098406ADE
:1041A000002804D0FFE7009800F012FFFFE7009816
:1041B000016848680922D20290434860009801686B
:1041C00088682A2290438860009801680868012264
:1041D00010430860009800F0A9FF01A90870FFE7EC
:1041E00001A8007802B080BD80B588B0079000209B
:1041F0000690059004900390029007980068134978
:10420000884221D1FFE71249086801225204104375
:104210000860FFE70F48026801210A430260006856
:10422000084001900198FFE70C20029002200390C3
:10423000002004900320059004200690052000072C
:1042400002A9FDF76FFDFFE708B080BD0044004004
:10425000381002402C10024010B58AB00890079127
:1042600006A8028005930898C06F202800D09BE024
:104270000798002805D0FFE706A80088002804D189
:10428000FFE709A90120087092E0089880680121E1
:104290000903884210D1FFE70898006900280BD174
:1042A000FFE707A80078C007002804D0FFE709A9A6
:1042B000012008707CE0FFE70899842200208850E4
:1042C00008992120C867FDF7B7FE02900698089963
:1042D000502288520698089952228852089880687D
:1042E0000121090388420AD1FFE7089800690028E4
:1042F00005D1FFE7002004900798039004E0079899
:10430000049000200390FFE7FFE708985221405AED
:10431000002830D0FFE70898029B05990091802182
:10432000002201F08BFA002807D0FFE7089920202F
:10433000C86709A9032008703AE0049800280BD147
:10434000FFE7039800881C490840089909688862BB
:104350000398801C039008E0049800780899096885
:1043600088620498401C0490FFE708995222885AFA
:10437000401E8852C9E70898029B05990091402188
:10438000002201F05BFA002807D0FFE708992020FF
:10439000C86709A9032008700AE008992020C867A7
:1043A00009A90020087003E009A902200870FFE7AE
:1043B00009A800780AB010BDFF010000FFE7FEE782
:1043C00081B0009000980068806902210840400890
:1043D000002805D0FFE70098016800208862FFE709
:1043E000009800688069C007002807D1FFE700989F
:1043F00001688869012210438861FFE701B07047B6
:1044000080B58AB009900891079206A9002008702B
:10441000099909688969059104900798039005A88E
:104420000078C006002800D484E0099801681020B4
:10443000C861FFE7099800688069202108404109A8
:1044400000200029009006D1FFE706A8007841422D
:1044500048410090FFE70098C007002858D0FFE7C8
:104460000898401C002852D0FFE7FDF7E5FD0399AE
:10447000401A0899884204D8FFE70898002845D1D7
:10448000FFE709980068406801218903084002900D
:1044900009984221405C01A9087009980068806968
:1044A00080B2C00B002816D0FFE7029801218903D3
:1044B000884210D0FFE701A8007820280BD0FFE742
:1044C0000998016848680122920310434860FDF78B
:1044D000B3FD0390FFE7FFE709980068806920219A
:1044E00008404009002810D1FFE7FDF7A5FD03991A
:1044F000401A1A2808D3FFE70498202108430490A3
:1045000006A90120087000E0E6E7FFE7FFE791E772
:1045100006A80078002805D1FFE709980168202047
:10452000C861FFE7049804210843049006A901200C
:104530000870FFE7099800688069059005A8407831
:10454000C00700280BD0FFE7049901200143049124
:1045500009990A680102D16106A90870FFE705A858
:104560004078400700280CD5FFE70498082108434D
:1045700004900998026801208102D16106A908709F
:10458000FFE705A84078800700280CD5FFE70498CE
:104590000221084304900998026801204102D16178
:1045A00006A90870FFE706A8007800281DD0FFE7DD
:1045B0000998FFF705FF0998016848680D4A1040FF
:1045C0004860049A0999486C10434864099941224B
:1045D000202088540999422200208854FFE7099935
:1045E000402200208854FFE7FFE706A800780AB0C1
:1045F00080BDC04600E800FE10B588B002910146BB
:1046000002980B9C0A9C069105A9088004A80280C8
:1046100003AA1380069809881278254B009301237A
:104620001B0600F047F806980A990B9A00F011F95A
:10463000002804D0FFE707A90120087034E003A890
:104640000088012806D1FFE704A8007806990968C8
:10465000886216E004A8407806990968886206987E
:104660000A990B9A00F0F5F8002804D0FFE707A993
:104670000120087018E004A800780699096888628B
:10468000FFE706980A9B0B9900918021002200F019
:104690003BF8002804D0FFE707A90120087003E0D9
:1046A00007A900200870FFE707A8007808B010BD30
:1046B0000020008010B585B0079C049003A80180FD
:1046C00002A90A70019300880D4A10400978090474
:1046D000401801990843079908430121C9078843F5
:1046E00000900498006840680799490D884305497F
:1046F00008400099084304990968486005B010BD56
:10470000FF030000009C00FC10B586B0089C0490DC
:10471000039102A802700193FFE704980068806982
:1047200003990840401A4142484102A90978884249
:1047300037D1FFE70198401C002831D0FFE7FDF793
:104740007BFC0899401A0199884204D8FFE7019838
:10475000002824D1FFE70498006880690399084085
:10476000401A4142484102A90978884216D1FFE720
:10477000049A516C202001435164049941228854C9
:104780000499422200208854FFE704994022002027
:104790008854FFE705A90120087006E0FFE7FFE75E
:1047A000BBE705A900200870FFE705A8007806B060
:1047B00010BD80B584B0029001910092FFE702988D
:1047C00000688069202108404009002839D1FFE7AE
:1047D00002980199009AFFF713FE002804D0FFE722
:1047E00003A90120087030E0FDF726FC0099401A6B
:1047F0000199884204D8FFE70198002820D1FFE7FB
:10480000029800688069202108404009002816D1DC
:10481000FFE7029A516C2020014351640299412222
:1048200088540299422200208854FFE702994022CE
:1048300000208854FFE703A90120087005E0FFE786
:10484000BDE703A900200870FFE703A8007804B0C3
:1048500080BD80B584B0029001910092FFE702987C
:104860000068806902210840400800283FD1FFE726
:1048700002980199009AFFF7C3FD002804D0FFE7D2
:1048800003A90120087036E00198401C00282DD0B3
:10489000FFE7FDF7D1FB0099401A0199884204D83F
:1048A000FFE70198002820D1FFE70298006880699F
:1048B000022108404008002816D1FFE7029A516CF7
:1048C00020200143516402994122885402994222D6
:1048D00000208854FFE70299402200208854FFE717
:1048E00003A90120087006E0FFE7FFE7B7E703A987
:1048F00000200870FFE703A8007804B080BD000026
:1049000083B0FFE71048026880210A430260006814
:10491000084002900298FFE7FFE70B480268042175
:104920000A4302600068084001900198FFE7FFE732
:104930000548026801210A430260006808400090AF
:104940000098FFE703B070472C10024080B582B09A
:1049500016480190164901601649416000218160A6
:104960000122C260016141618161C1610162FDF7A3
:1049700005FC002803D0FFE7FDF7AAF9FFE70B4885
:104980000021FDF75FFB002803D0FFE7FDF7A0F94A
:10499000FFE706480021FDF7A0FB002803D0FFE752
:1049A000FDF796F9FFE702B080BDC046CC040020B9
:1049B00000780040380F300080B58CB000210191A4
:1049C0000B910A9109910891079106910591049123
:1049D000039102917D48012292070260416081604B
:1049E000204AC260016180214161FEF7D7FE0028A4
:1049F00003D0FFE7FDF76CF9FFE701200003089003
:104A0000724808A9FEF79EFF002803D0FFE7FDF7D4
:104A10005FF9FFE76D48FFF743F9002803D0FFE790
:104A2000FDF756F9FFE7002006900790674806A9B2
:104A3000FEF74EFE002803D0FFE7FDF749F9FFE738
:104A40000022029201200390049205925F4802A97D
:104A5000FFF78CF8002803D0FFE7FDF739F9FFE7EF
:104A60000CB080BDFFFF000080B582B00D48019002
:104A70000D490160E1214902416000218160C1606E
:104A800001610C2242618161C16101624162FFF7F3
:104A900053FB002803D0FFE7FDF71AF9FFE702B048
:104AA00080BDC0466005002000440040FFE7FEE7EF
:104AB0007047704780B584B002900298401E000E87
:104AC000002803D0FFE70120039011E00298401E68
:104AD0000949086000200190C043032100F05EFFF7
:104AE000019806490860064A072111600390FFE714
:104AF000039804B080BDC04614E000E018E000E078
:104B000010E000E080B5FDF723FD02490868401C75
:104B1000086080BDC4040020B0B59EB010A800900D
:104B20003821FBF78DFC00200F900E900D900C901B
:104B30000B9001A82821FBF783FC00981E4C2368EA
:104B40000322D1028B430121CD025B192360109116
:104B50000B04119302241A941B9392041C9289054E
:104B60001D91FEF775F9002803D0FFE7FDF7B0F8B7
:104B7000FFE70F200B9003200C9000200D900E906B
:104B80000F900BA80121FDF723FF002803D0FFE7BA
:104B9000FDF79EF8FFE7812040000190002005907E
:104BA000089001A8FDF75EFD002803D0FFE7FDF7A0
:104BB0008FF8FFE71EB0B0BD0070004070470000E6
:104BC00080B50248FFF7A2F980BDC046200500204D
:104BD00083B0029001910298006800900298012130
:104BE000890788420FD0FFE702988E4988420AD091
:104BF000FFE702988C49884205D0FFE702982249D6
:104C000088420AD1FFE700987021884300900198FC
:104C10004168009808430090FFE702980121890746
:104C200088420FD0FFE702987E4988420AD0FFE70A
:104C300002987D49884205D0FFE7029812498842D0
:104C40000BD1FFE7009803210902884300900198E7
:104C5000C168009808430090FFE7009880218843CE
:104C60000199096908430090009802990860019829
:104C700080680299C8620198006802998862029966
:104C80000120486103B070470014014084B00390D4
:104C900002910192029A1F210A4001209040009047
:104CA000009B039A106A98431062019A0298084088
:104CB00082400399086A1043086204B0704785B0C7
:104CC00004900391029201930498806800900098E8
:104CD000FF2109028843009003990298019A120269
:104CE000104301430098084300900098049988609D
:104CF00005B0704783B002900191029880680090DF
:104D0000009870218843009001980099084307217A
:104D10000843009000980299886003B0704785B0FE
:104D20000490039102920498006A00900499086A22
:104D30000122904308620498806901900198F02153
:104D4000884301900298010101980843019000985E
:104D50000A21884300900399009808430090019825
:104D60000499886100980499086205B070470000B2
:104D700087B00690059104920393069A116A012068
:104D8000814311620699896902910699096A019124
:104D9000069982079142009015D0FFE706990120FD
:104DA000204A914200900ED0FFE7069901201E4A4A
:104DB0009142009007D0FFE706981C4940184142F5
:104DC00048410090FFE70098C007002809D0FFE79E
:104DD00002980321884302900499029808430290A4
:104DE00004E00298012108430290FFE70298F021B5
:104DF0008843029003980001C1B2029808430290D0
:104E000001990A20814301910599014001980843C5
:104E1000019002980699886101980699086207B086
:104E20007047C046000400400008014000ECFEBF8F
:104E300085B00490039102920499086A102290436D
:104E400008620498806901900498006A00900198B3
:104E50000F21090388430190029801030198084338
:104E600001900098A02188430090039801010098C8
:104E70000843009001980499886100980499086299
:104E800005B0704786B0059004910392029305998E
:104E9000086A10229043086205988069019005987D
:104EA000006A009001980321090288430190039849
:104EB000010201980843019001980F2109038843DA
:104EC00001900298000381B2019808430190009973
:104ED000A0208143009104990901014000980843F2
:104EE000009001980599886100980599086206B0BC
:104EF000704786B005900491039202930599086A61
:104F000001221202904308620598C0690190059839
:104F1000006A009001980321884301900399019849
:104F2000084301900198F021884301900298000104
:104F3000C1B20198084301900099052040028143C5
:104F400000910499090201400098084300900198DB
:104F50000599C86100980599086206B0704786B047
:104F600005900491039202930599086A01221203A5
:104F7000904308620598C06901900598006A009006
:104F800001980321090288430190039801020198C6
:104F90000843019001980F2109038843019002986A
:104FA000000381B201980843019000990520400355
:104FB000814300910499090301400098084300903F
:104FC00001980599C86100980599086206B0704774
:104FD00081B0009000982421405CC00700280CD0CC
:104FE000FFE7009800684068012149048843009960
:104FF0008A6A104309684860FFE700982421405CF2
:10500000800700280CD5FFE7009800684068012160
:10501000090488430099CA6A104309684860FFE799
:1050200000982421405C400700280CD5FFE7009839
:105030000068406801218904884300990A6B104385
:1050400009684860FFE700982421405C00070028B9
:105050000CD5FFE70098006840680121C903884328
:1050600000994A6B104309684860FFE700982421C3
:10507000405CC00600280CD5FFE7009800688068F7
:1050800001210903884300998A6B104309688860ED
:10509000FFE700982421405C800600280CD5FFE73C
:1050A0000098006880680121490388430099CA6B11
:1050B000104309688860FFE700982421405C40069F
:1050C00000281DD5FFE70098006840680121090508
:1050D0008843009A136C1843126850600098006C63
:1050E00088420CD1FFE70098006840680321490519
:1050F000884300994A6C104309684860FFE7FFE75E
:1051000000982421405C000600280CD5FFE7009899
:10511000006840680121C904884300998A6C1043E3
:1051200009684860FFE701B07047000080B590B0A3
:1051300005900599842200208850FCF77DFF04909B
:105140000598006800680007002831D5FFE705983A
:10515000049B4C49009101214905002200F06EFB9F
:10516000002824D0FFE7FFE7EFF3108009900998AB
:10517000039001200F900F9880F310880598016824
:10518000086880229043086003980E900E9880F380
:105190001088FFE705992020C867FFE70599782266
:1051A00000208854FFE706A90320087065E0FFE7A8
:1051B0000598006800684007002849D5FFE7059872
:1051C000049B3049009101218905002200F036FB43
:1051D00000283CD0FFE7FFE7EFF310800890089825
:1051E000029001200D900D9880F3108805980168B9
:1051F0000868092252019043086002980C900C98AC
:1052000080F31088FFE7FFE7EFF31080079007981F
:10521000019001220B920B9880F310880598016889
:1052200088689043886001980A900A9880F31088F3
:10523000FFE70599802220208850FFE70599782212
:1052400000208854FFE706A90320087015E0FFE757
:1052500005992020C867059980228850059900206B
:10526000086605994866FFE705997822002088546A
:10527000FFE706A900200870FFE706A8007810B035
:1052800080BDC046FFFFFF018DB00390FFE7EFF345
:10529000108006900698029001200C900C9880F3E4
:1052A0001088039801680868092252019043086039
:1052B00002980B900B9880F31088FFE7FFE7EFF35D
:1052C000108005900598019001220A920A9880F3B7
:1052D0001088039801688868904388600198099055
:1052E000099880F31088FFE70398006E012818D111
:1052F000FFE7FFE7EFF3108004900498009001208F
:105300000890089880F310880398016808681022B4
:105310009043086000980790079880F31088FFE793
:10532000FFE7039980222020885003990020086617
:10533000039988660DB0704710B58EB00D9008A91E
:10534000002008700D980068D549884201D1FFE718
:1053500000E0FFE70D9988680A6910434A69104325
:10536000C96908430C900D9800680068F749084027
:105370000C9908430D99096808600D980068406809
:105380000321090388430D99CA68104309684860DE
:105390000D9880690C900D980068C149884206D02C
:1053A000FFE70D98016A0C9808430C90FFE70D98F1
:1053B000006880680B21090288430C9908430D9905
:1053C00009688860FFE70D980068EE4988422AD195
:1053D000FFE7ED48006803210840069003281DD828
:1053E0000698810001A040588746C046FD5300083A
:1053F0000D54000805540008155400080AA901209E
:1054000008700FE00AA9022008700BE00AA9042026
:10541000087007E00AA90820087003E00AA9102014
:105420000870FFE793E00D980068FD4988423CD181
:10543000FFE7D54800680C21084005900C282FD8BC
:105440000598810001A040588746C0468154000855
:10545000A1540008A1540008A15400089154000868
:10546000A1540008A1540008A15400088954000860
:10547000A1540008A1540008A15400089954000840
:105480000AA9002008700FE00AA9022008700BE0AA
:105490000AA90420087007E00AA90820087003E0A0
:1054A0000AA910200870FFE750E00D980068DD4958
:1054B000884204D1FFE70AA90020087045E00D9852
:1054C0000068D949884204D1FFE70AA90020087082
:1054D0003AE00D980068D149884230D1FFE7D348BF
:1054E00000680321890208400490002812D0FFE7D9
:1054F000049801218902884214D0FFE70498012111
:10550000C90288420AD0FFE7049803218902884231
:105510000CD00FE00AA9002008700FE00AA90220B1
:1055200008700BE00AA90420087007E00AA9082007
:10553000087003E00AA910200870FFE703E00AA939
:1055400010200870FFE7FFE7FFE7FFE7FFE7FFE74F
:105550000D980068B149884276D1FFE70AA8007823
:105560000390082831D80398810001A0405887464D
:1055700095550008CB5500089D550008CB550008EF
:10558000BB550008CB550008CB550008CB5500088B
:10559000C3550008FDF79EFB07901CE0A448006877
:1055A000102108400009002803D0FFE7A248079017
:1055B00002E0A0480790FFE70DE0FDF7ABFB079086
:1055C00009E00120C003079005E00020079008A92A
:1055D00001200870FFE70798002834D0FFE70798FC
:1055E0000D994A6803215143884207D3FFE7079882
:1055F0000D9949680903884204D9FFE708A90120E9
:1056000008701FE00798010E00020D9A52685408B6
:10561000002300195941FAF757FE09900998000A2A
:1056200003280AD3FFE70998000D002805D1FFE7FA
:1056300009980D990968C86003E008A9012008705D
:10564000FFE7FFE7FFE7E0E00D98C0690121C9032C
:10565000884271D1FFE70AA800780290082838D85C
:105660000298810001A040588746C0469156000824
:1056700099560008A5560008D3560008C3560008DE
:10568000D3560008D3560008D3560008CB5600085E
:10569000FDF720FB079022E0FDF72AFB07901EE0B4
:1056A00000480040624800681021084000090028B6
:1056B00003D0FFE76048079002E05E480790FFE7ED
:1056C0000DE0FDF727FB079009E00120C0030790DC
:1056D00005E00020079008A901200870FFE707985F
:1056E000002828D0FFE7079840000D9949684A082C
:1056F0008018FAF7A7FE09900998102816D3FFE73B
:1057000009A84088002811D1FFE709990F2081439B
:105710000BA8018009990E2211404A080B991143E8
:10572000018000880D990968C86003E008A901207C
:105730000870FFE7FFE767E00AA8007801900828F3
:105740003BD80198810002A040588746F369FFEFDB
:10575000755700087D5700088D570008BB57000893
:10576000AB570008BB570008BB570008BB570008E1
:10577000B3570008FDF7AEFA079024E0FDF7B8FA3A
:10578000079020E0003801404C1002402848006893
:10579000102108400009002803D0FFE726480790A1
:1057A00002E024480790FFE70DE0FDF7B3FA079009
:1057B00009E00120C003079005E00020079008A938
:1057C00001200870FFE7079800281CD0FFE7079822
:1057D0000D9949684A088018FAF734FE099009982B
:1057E00010280BD3FFE709A84088002806D1FFE75F
:1057F00009A800880D990968C86003E008A901207C
:105800000870FFE7FFE7FFE7FFE70D9900208866D4
:105810000D99C86608A800780EB010BD0048004079
:1058200000440040004C0040005000404C1002403A
:10583000001002400024F40000093D0010B586B0BD
:10584000089C0490039102A802700193FFE704985A
:105850000068C06903990840401A4142484102A9C2
:10586000097888425ED1FFE70898401C002858D08C
:10587000FFE7FCF7E1FB0199401A0899884204D838
:10588000FFE70898002804D1FFE705A90320087066
:105890004CE00498006800684007002840D5FFE706
:1058A00004980068C06908210840C008012816D182
:1058B000FFE7049801680820009008620498FFF749
:1058C000E3FC0098049984228850FFE70499782229
:1058D00000208854FFE705A90120087026E00498FD
:1058E0000068C0690121C9020840C00A012816D118
:1058F000FFE7049801680120C00208620498FFF7DE
:10590000C3FC0499842220208850FFE70499782260
:1059100000208854FFE705A90320087006E0FFE790
:10592000FFE794E705A900200870FFE705A80078C5
:1059300006B010BD80B582B009480068FAF73CFE99
:1059400002460B46074801900749FAF745FD0199C1
:1059500006481E226423FEF77FFC02B080BDC046CD
:10596000C8040020A6040020F16E00086005002095
:1059700081B001466846017000214056002809D4D4
:10598000FFE7684601781F20014001208840024956
:105990000860FFE701B0704700E100E070B582B039
:1059A000024601A80270009100214056002816D43A
:1059B000FFE7002401A908570322D3431840174AE0
:1059C000805809578C07E50EFF24AC40A043009C8B
:1059D000A401E4B2AC402043194088501AE001A968
:1059E00008780F24204008380322D34318400A4A7D
:1059F0008058002549578D07EE0EFF25B540A84376
:105A0000009DAD01EDB2B540284321400839194051
:105A10008850FFE702B070BD1CED00E000E400E03C
:105A200080B584B0002002900390FCF79BFDFFF747
:105A300073F8FEF765FFFEF7BFFFFFF715F8FEF7F7
:105A400085FF1948009000F09FF80299084600F081
:105A5000A3F91648426801681548012300F06EFA60
:105A600002980C2100F098F9009800F0A5F911486F
:105A70000190FDF711FF02990198FEF755F9029880
:105A80000D490860FFE70C4800687D21C900884285
:105A900008D1FFE7FCF7F4F8FFF74CFF06490020B8
:105AA0000860FFE7EFE7C046CC04002000000020BC
:105AB000FF6E000820050020C404002083B00346C8
:105AC00002A8037001AB197069460A7000787F283C
:105AD00005DCFFE701A80078402801DBFFE731E0A3
