:020000040800F2
:10000000A807002065010008F92A0008492900080E
:1000100000000000000000000000000000000000E0
:10002000000000000000000000000000FF2A00089F
:100030000000000000000000FD2A0008512B00080D
:1000400077010008770100087701000877010008B0
:1000500077010008770100087701000877010008A0
:100060007701000877010008770100087701000890
:10007000770100087701000877010008012C0008CB
:1000800077010008770100087701000800000000F0
:100090007701000877010008770100087701000860
:1000A0007701000877010008770100087701000850
:1000B0007701000877010008770100087701000840
:1000C00000F002F800F03EF80CA030C80838241800
:1000D0002D18671EA246AB4654465D46AC4201D180
:1000E00000F030F87E460F3EB6460FCC0126334274
:1000F00000D0FB1A3343A246AB461847F439000040
:10010000143A0000103A02D378C878C1FAD85207DE
:1001100001D330C830C101D504680C6070470000BD
:100120000023002400250026103A01D378C1FBD813
:10013000520700D330C100D50B6070471FB51FBDFB
:1001400010B510BD00F004FA1146FFF7F7FF03F0F9
:1001500069FC00F01CFA03B4FFF7F2FF03BC00F0E7
:1001600071FA00000748804707480047FEE7FEE7AE
:10017000FEE7FEE7FEE7FEE704480549054A064BB1
:1001800070470000FD2B0008C1000008A8010020F6
:10019000A8070020A8030020A803002043435143E0
:1001A00030B55C18010C130C0D4692B25D4380B261
:1001B00051432C19054655430A0C09044D19624157
:1001C0005843010C00044019514130BDFEB50446AE
:1001D00010460D46184373D0A6468C460020A41A3C
:1001E00001469D4167D36646002701243D46B61A65
:1001F0009D4102D313463A462124654676462F0494
:10020000360C3E432D0CB61A9D4104D3150C1B042D
:100210002B4312041034654676462F06360A3E43B9
:100220002D0AB61A9D4104D3150E1B022B43120250
:100230000834654676462F0736093E432D09B61A1F
:100240009D4104D3150F1B012B431201241D65464C
:100250007646AF07B6083E43AD08B61A9D4104D3B3
:10026000950F9B002B439200A41C65467646EF0732
:1002700076083E436D08B61A9D411AD392185B4129
:10028000641C16E00018764665464941B71A9D4140
:100290000191009009D36046B11A98418E46844678
:1002A000009801990025401C6941DD0752082A4346
:1002B0005B08641EE6D57246634603B0F0BDFFE7F7
:1002C0002046284307D00020C0430146C046C04610
:1002D00022462B46F1E700200146F7E701E004C083
:1002E000091F0429FBD28B0701D50280801CC90796
:1002F00000D00270704700290BD0C30702D00270F3
:10030000401C491E022904D3830702D50280801CA9
:10031000891EE3E70022EEE70022DFE7002203095F
:100320008B422CD3030A8B4211D300239C464EE010
:1003300003460B433CD4002243088B4231D30309CC
:100340008B421CD3030A8B4201D394463FE0C3097E
:100350008B4201D3CB01C01A524183098B4201D396
:100360008B01C01A524143098B4201D34B01C01A81
:10037000524103098B4201D30B01C01A5241C308F9
:100380008B4201D3CB00C01A524183088B4201D368
:100390008B00C01A524143088B4201D34B00C01A54
:1003A0005241411A00D201465241104670475DE069
:1003B000CA0F00D04942031000D3404253409C462C
:1003C000002203098B422DD3030A8B4212D38901E9
:1003D000FC2212BA030A8B420CD3890192118B4280
:1003E00008D3890192118B4204D389013AD092112A
:1003F00000E08909C3098B4201D3CB01C01A5241E5
:1004000083098B4201D38B01C01A524143098B42AD
:1004100001D34B01C01A524103098B4201D30B0196
:10042000C01A5241C3088B4201D3CB00C01A5241BB
:1004300083088B4201D38B00C01A5241D9D24308A2
:100440008B4201D34B00C01A5241411A00D20146DF
:100450005241104663465B1001D34042002B00D549
:100460004942704763465B1000D3404201B50549DD
:10047000002802DC491C084000E00846C046C0468F
:1004800002BD00BFFFFFFF7F7047704770471F220C
:10049000030C02D10F2200041CD0030E01D1000274
:1004A000083A030F01D10001121F830F01D1800010
:1004B000921E002801DB4000521ED2055118021284
:1004C00051181922904004D3491C002801D1490831
:1004D000490008467047C10FC90700D040420122B9
:1004E00092071143D3E701218907D0E710B5FF2315
:1004F0001B0644009C421DD84C009C421AD803465F
:10050000124A0B4307D4401A02D3EFF3008010BD08
:10051000EFF3008010BD081A03D3EFF3008090437F
:1005200005E0EFF3008001219043C907084380F301
:10053000008810BD0D231B041A4204D01146002070
:1005400000F02DF810BD00F041F810BD0000009043
:10055000754600F043F8AE46050069465346C008AC
:10056000C000854618B020B5FFF706FE60BCB64651
:1005700000260027C0C5C0C5C0C5C0C5C0C5C0C510
:10058000C0C5C0C5403D490849008D46704710B5FB
:100590000446C046C0462046FFF7DDFD10BDC80238
:1005A00012D54803400F002804D0C803C0430121DE
:1005B00088407047EFF3008000010009032109071C
:1005C000084380F3008870470020704710B5024848
:1005D00000F008F810BD00000000C07F0048704720
:1005E0001000002010B50C461107090F092904D08E
:1005F0000A290AD008290CD104E011460820FFF787
:10060000CEFF06E0510606D501E0510601D50120D6
:10061000C007214610BDD10607D501010909CC0844
:100620004907000E0006044309E0410F2002490774
:10063000000A0143200E00061D22D1410143084655
:10064000E7E7000001491820ABBEFEE726000200E4
:10065000704781B0EFF3108072B60090FFE7FEE7BD
:100660008CB00B900A910020099008900790FFE74A
:100670000A9800680999C840002800D162E10A98E8
:100680000068099A012191400840089008980028C4
:1006900000D153E10A98406803210840012807D09F
:1006A000FFE70A9840680321084002282CD1FFE7A1
:1006B0000B988068079009984000032181400798B3
:1006C000884307900A98C1680998400081400798BC
:1006D0000843079007980B9988600B98406807902B
:1006E0000998012181400798884307900A9840683B
:1006F0001021084001090998814007980843079094
:1007000007980B994860FFE70A9840680321084062
:10071000032816D0FFE70B98C0680790099840009F
:10072000032181400798884307900A9881680998B7
:100730004000814007980843079007980B99C860CC
:10074000FFE70A98406803210840022820D1FFE70C
:100750000B980999C90889004018006A0790099800
:100760004007C00E0F2181400798884307900A98E0
:10077000016909984007C00E814007980843079017
:1007800007980B99099AD208920089180862FFE726
:100790000B980068079009984100032002468A40A0
:1007A0000799914307910A994968014009984000C7
:1007B000814007980843079007980B9908600A98AA
:1007C00080798007002800D1B7E05F4908680122DE
:1007D000104308600998032188435C4940580790FA
:1007E00009988007000F0F218140079888430790E0
:1007F0000B9805210907884203D1FFE700200690E6
:1008000038E00B985249884203D1FFE70120059058
:100810002DE00B984F49884203D1FFE70220049056
:1008200022E00B984C49884203D1FFE70320039054
:1008300017E00B984949884203D1FFE70420029052
:100840000CE00B99464A0520062300939142019043
:1008500001D00098019001980290FFE70298039060
:10086000FFE703980490FFE704980590FFE70598D9
:100870000690FFE7069909988007000F81400798C6
:100880000843079007980999032291432F4A8850FB
:1008900034480068079008990798884307900A9899
:1008A0008079C006002805D5FFE708990798084316
:1008B0000790FFE707982B4908602B4800680790CE
:1008C00008990798884307900A988079800600283D
:1008D00005D5FFE70899079808430790FFE70798B1
:1008E00021490860214800680790089907988843C3
:1008F00007900A9880798007002805D5FFE70899B6
:10090000079808430790FFE70798184908601848B8
:100910000068079008990798884307900A9880799B
:10092000C007002805D0FFE70899079808430790FB
:10093000FFE707980E490860FFE7FFE70998401CAA
:10094000099095E60CB07047341002400800014051
:100950000004005000080050000C0050001000502F
:10096000001C0050080401400C0401400404014034
:1009700000040140B24800687047C04610B583B01B
:100980000190009101984121405C202839D1FFE776
:10099000FFE701984021405C012804D1FFE702A94C
:1009A0000220087031E00199402201208854FFE7BD
:1009B000FFE70199412224208854019801680868C2
:1009C0000123984308600198016808681C03A0434C
:1009D0000860009C0198016808682043086001983D
:1009E0000168086818430860019920208854FFE7CF
:1009F0000199402200208854FFE702A900200870D6
:100A000003E002A902200870FFE702A8007803B003
:100A100010BD84B00290019102984121405C2028D1
:100A20003FD1FFE7FFE702984021405C012804D155
:100A3000FFE703A90220087037E002994022012055
:100A40008854FFE7FFE70299412224208854029846
:100A500001680868012398430860029800680068EC
:100A6000009000980F21090288430090019801022C
:100A7000009808430090009802990968086002985D
:100A80000168086818430860029920208854FFE72D
:100A90000299402200208854FFE703A90020087033
:100AA00003E003A902200870FFE703A8007804B060
:100AB0007047000080B582B000900098002804D1F3
:100AC000FFE701A90120087074E000984121405C13
:100AD000002808D1FFE700994022002088540098A0
:100AE00000F06EF8FFE70099412224208854009816
:100AF00001680868012290430860009948680F2344
:100B00001B06984309680861009801688868D20349
:100B1000904388600098C068012808D1FFE70099D9
:100B200088680122D20310430968886007E00099B1
:100B3000886821229202104309688860FFE70098C4
:100B4000C068022806D1FFE7009801680120C002B2
:100B50004860FFE7009801684868184A10434860F9
:100B600000980168C8680122D3039843C8600099BF
:100B700008694B6918438B691B0218430968C860F0
:100B80000099C8690B6A18430968086000980168F1
:100B9000086810430860009900204864009A4123C7
:100BA0002021D1540099086300994222885401A958
:100BB0000870FFE701A8007802B080BD0080000245
:100BC00080B588B0079000200690059004900390AF
:100BD0000290079800681349884221D1FFE7FFE798
:100BE0001148026802210A4302600068084001902F
:100BF0000198FFE7C020029012200390002004908B
:100C000003200590012000900690084802A9FFF7F4
:100C100027FD009A3D490868520510430860FFE728
:100C200008B080BD005400402C1002400004005069
:100C30002D48027802490868801808607047C0464D
:100C4000A401002080B582B001A9002008700B49E2
:100C50000868402210430860032000F011F80028C3
:100C600004D0FFE701A90120087002E000F040F87D
:100C7000FFE701A8007802B080BDC0460020024016
:100C800080B584B00290174800680190164801783A
:100C90007D20C000FFF742FB01460198FFF73EFBB5
:100CA00001F07EF8002804D0FFE703A901200870B6
:100CB00014E00298032809D8FFE702990022D043E4
:100CC00000F031F802980949086003E003A9012007
:100CD000087003E003A900200870FFE703A800786C
:100CE00004B080BD000000200400002008000020A7
:100CF00005490868012210430860E749086812079F
:100D0000104308607047C04634100240381002405B
:100D100080B582B0014601A801700021405602F062
:100D200029FE02B080BD80B584B0034603A80370DD
:100D30000291019200214056029902F031FE04B066
:100D400080BD000080B586B0049001A90020087025
:100D50000498006820210840202806D0FFE7049866
:100D600040780007002800D41FE10498007880062E
:100D7000002801D5FFE7FFE7049840780007002826
:100D800001D5FFE7FFE7C4480068C000002809D488
:100D9000FFE7C14A1168012003071943116001A947
:100DA0000870FFE7BD480068C00500281DD4FFE7B4
:100DB000BA4908680122120210430860FFF7DAFD01
:100DC0000390FFE7B5480068C00500280CD4FFE792
:100DD000FFF7D0FD0399401A652804D3FFE705A962
:100DE0000320087053E1EDE7FFE7AD4800680321F9
:100DF0000A051040029002980499496811408842FF
:100E000009D1FFE70298049989680322120511406D
:100E1000884214D0FFE70498406803210904084081
:100E200088420BD1FFE79E4800688003002804D564
:100E3000FFE705A90120087029E1FFE7FFE79948CE
:100E4000006803210904084002900298002851D04C
:100E5000FFE702980499496803221204114088426E
:100E600007D0FFE7049800682021084020280FD011
:100E7000FFE702980499896803221204114088420E
:100E800038D0FFE7049840780007002832D5FFE704
:100E900084490868032212049043029008680122E2
:100EA000D204104308600868904308600298086004
:100EB00002A84078C00700281BD0FFE7FFF75AFDC3
:100EC0000390FFE777480068012149020840400A83
:100ED00000280DD1FFE7FFF74DFD0399401A734934
:100EE000884204D3FFE705A903200870CFE0E9E7B3
:100EF000FFE7FFE7049840780007002821D5FFE7C7
:100F0000FFE7FFE70498806803210904084088424E
:100F10000BD1FFE762490868032213059843049A3E
:100F200092681A4080180860FFE7FFE7049882681B
:100F30000320000402405B49086810430860FFE793
:100F4000FFE7049800788006002821D5FFE7FFE737
:100F5000FFE70498406803210904084088420BD148
:100F6000FFE74F490868032213059843049A526823
:100F70001A4080180860FFE7FFE7049842680320E2
:100F8000000402404749086810430860FFE7FFE794
:100F900001A80078012807D1FFE73F49086801222E
:100FA000120790430860FFE7FFE704980078C00746
:100FB000002809D0FFE73C49086803229043049ABF
:100FC000D26810430860FFE7049800788007002883
:100FD00009D5FFE7344908680C229043049A126946
:100FE00010430860FFE704980078400700280AD5FE
:100FF000FFE72D490868032292029043049A526940
:1010000010430860FFE704980078000700280AD51D
:10101000FFE725490868032212039043049A926966
:1010200010430860FFE704984078C00700280AD002
:10103000FFE71D490868032212049043049AD2690D
:1010400010430860FFE704980078400600280AD59E
:10105000FFE715490868012292069043049A526AF4
:1010600010430860FFE704980078000600280AD5BE
:10107000FFE70D490868032292049043049A126A1C
:1010800010430860FFE705A900200870FFE705A8E6
:10109000007806B080BDC0463810024000700040A5
:1010A00000100240501002404C1002408913000012
:1010B00080B586B0049003910498002804D1FFE71E
:1010C00005A90120087062E10398B349096801226B
:1010D0001140884221D9FFE7AF49086801229043B7
:1010E000039A10430860FFF745FC0290FFE7AA4807
:1010F000006801210840039988420DD0FFE7FFF7FF
:1011000039FC0299401AA549884204D3FFE705A992
:10111000032008703BE1EAE7FFE7049800788007C6
:10112000002809D5FFE7B1490868F0229043049AE6
:10113000926810430860FFE704980078C007002811
:1011400000D1BCE00498406802280ED1FFE7F348C4
:101150000068012149040840400C002804D1FFE741
:1011600005A90120087012E134E0049840680328C2
:101170000ED1FFE7E9480068012149060840400E0A
:10118000002804D1FFE705A901200870FFE020E056
:101190000498406801280DD1FFE7E0480068042169
:1011A00008408008002804D1FFE705A90120087045
:1011B000EDE00DE0D9480068012149020840400AED
:1011C000002804D1FFE705A901200870DFE0FFE750
:1011D000FFE7FFE7CF49086803229043049A52686B
:1011E00010430860FFF7C6FB02900498406802288D
:1011F00016D1FFE7FFE7C74800680C210840082820
:101200000DD0FFE7FFF7B6FB0299401A6349884209
:1012100004D3FFE705A903200870B8E0EBE74DE031
:1012200004984068032816D1FFE7FFE7B948006833
:101230000C2108400C280DD0FFE7FFF79BFB02991B
:10124000401A5649884204D3FFE705A903200870D5
:101250009DE0EBE731E004984068012816D1FFE7F4
:10126000FFE7AC4800680C21084004280DD0FFE7D8
:10127000FFF780FB0299401A4849884204D3FFE7F0
:1012800005A90320087082E0EBE715E0FFE7A1481D
:1012900000680007800F00280DD0FFE7FFF76AFB0A
:1012A0000299401A3D49884204D3FFE705A903206B
:1012B00008706CE0EBE7FFE7FFE7FFE7FFE7039865
:1012C0003549096801221140884221D2FFE732499D
:1012D000086801229043039A10430860FFF74AFB15
:1012E0000290FFE72C4800680121084003998842DA
:1012F0000DD0FFE7FFF73EFB0299401A27498842CD
:1013000004D3FFE705A90320087040E0EAE7FFE700
:1013100004980078400700280AD5FFE77D4908684F
:10132000072212029043049AD26810430860FFE734
:1013300004980078000700280BD5FFE77549086876
:101340000722D2029043049A1269D2001043086027
:10135000FFE700F04FF86F490968C9B20A09104960
:10136000895CC840124908600E480068FFF788FC95
:10137000014601A801700078002804D0FFE7019819
:1013800005A9087003E005A900200870FFE705A87B
:10139000007806B080BDC0460020024089130000DE
:1013A000CC3A000808000020014800687047C04699
:1013B0000000002080B5FFF7F7FF564909680722B3
:1013C000120211400A0A0A49895CC84080BDC04621
:1013D00080B5FFF7E9FF4F4909680722D2021140A3
:1013E000CA0A0349895CC84080BDC0460C1002404F
:1013F000DC3A000880B58AB0464800680990099830
:101400000C21084003900C2875D80398810001A096
:1014100040588746F5140008F7140008F714000830
:10142000F714000849140008F7140008F71400081E
:10143000F714000863140008F7140008F7140008F4
:10144000F71400086914000834480068C006002832
:1014500003D5FFE73348049002E031480490FFE7EA
:1014600055E03148049052E009980F218904084062
:10147000810C2948405C089009980321890508409F
:10148000800D401C079023480068C00300280DD53C
:10149000FFE70898244A002302931946FEF77EFED0
:1014A000029B079AFEF792FE069020E01B48006818
:1014B000C00600280DD5FFE708981A4A00230193BB
:1014C0001946FEF76BFE019B079AFEF77FFE06901A
:1014D0000CE00898124A002300931946FEF75EFEBE
:1014E000009B079AFEF772FE0690FFE7FFE706985B
:1014F00004900CE0FFE70D48006880B2400B0590B7
:101500000598411C01208840C0030490FFE704981F
:101510000AB080BD0C100240E43A000800100240FE
:101520000024F40000093D0000127A00041002407B
:1015300010B58AB008900898002805D1FFE709A9DE
:101540000120087000F015FCFD4801680C221140D4
:10155000049100680121090408400390089800786C
:10156000C007002800D18DE0049808280AD0FFE7C2
:1015700004980C2819D1FFE7039801210904884237
:1015800013D1FFE7EF480068012149040840400CEF
:10159000002809D0FFE708984068002804D1FFE739
:1015A00009A901200870E4E36BE0FFE708984068B0
:1015B00001210904884207D1FFE7E24908680122B6
:1015C00012041043086021E00898406805210904CE
:1015D00088420BD1FFE7DB490868012293041843D6
:1015E000086008681204104308600EE0D5490868D6
:1015F000012213049843086008681840029002987A
:101600000868920490430860FFE7FFE7FFE7089847
:10161000406800281AD0FFE7FFF7ACF90790FFE712
:10162000C8480068012149040840400C00280CD13A
:10163000FFE7FFF79FF90799401A652804D3FFE7F2
:1016400009A90320087094E3EAE719E0FFF792F98B
:101650000790FFE7BB480068012149040840400C9F
:1016600000280CD0FFE7FFF785F90799401A652895
:1016700004D3FFE709A9032008707AE3EAE7FFE74C
:10168000FFE7FFE7089800788007002800D4A8E06B
:101690000898C068069006A800788006002809D53A
:1016A000FFE7A84A10682021084310600698884385
:1016B0000690FFE70498042808D0FFE704980C2858
:1016C00041D1FFE7039800283DD1FFE79D4800681E
:1016D000042108408008002808D0FFE70698002869
:1016E00004D1FFE709A90120087042E39649086880
:1016F0001F2212029043089A1269120210430860D6
:101700009049086809229043069A10430860FFE751
:10171000FFF770FE8A490968C9B20A098B49895CDA
:10172000C8408B4908608B480068FFF7A9FA01465A
:1017300005A801700078002804D0FFE7059809A9E2
:10174000087016E34CE0069800282AD0FFE77D4990
:10175000086809229043069A10430860FFF70AF9C7
:101760000790FFE7774800680421084080080028B8
:101770000CD1FFE7FFF7FEF80799401A032804D3BE
:10178000FFE709A903200870F3E2EBE76E49086858
:101790001F2212029043089A126912021043086035
:1017A0001DE068490868012290430860FFF7E2F8ED
:1017B0000790FFE76348006804210840800800287C
:1017C0000CD0FFE7FFF7D6F80799401A032804D397
:1017D000FFE709A903200870CBE2EBE7FFE7FFE78B
:1017E000FFE708980078C006002800D4A1E004981C
:1017F000002845D1FFE7534800680121490208400D
:10180000400A002809D0FFE70898C069002804D1E1
:10181000FFE709A901200870ABE24B4908680722DD
:1018200052039043089A526A104308600868FF22E6
:1018300012069043089A126A1206801808600898E7
:10184000406A400B411C01208840C0033C490968A4
:10185000C9B20A093D49895CC8403D4908603D4814
:101860000068FFF70DFA014605A80170007800280E
:1018700004D0FFE7059809A908707AE2FFE757E06E
:101880000898C069002832D0FFE72E490868012275
:10189000120210430860FFF76DF80790FFE7294830
:1018A0000068012149020840400A00280CD1FFE7E6
:1018B000FFF760F80799401A032804D3FFE709A946
:1018C0000320087055E2EAE71F490868072252031F
:1018D0009043089A526A104308600868FF22120673
:1018E0009043089A126A1206801808601FE0154992
:1018F00008680122120290430860FFF73BF8079046
:10190000FFE710480068012149020840400A00280A
:101910000CD0FFE7FFF72EF80799401A032804D3ED
:10192000FFE709A90320087023E2EAE7FFE7FFE7E2
:10193000FFE708980078000700284FD50CE0C04664
:101940000C1002400010024004100240CC3A000883
:1019500000000020080000200898406900281ED0E0
:10196000FFE7FD490868012210430860FFF702F80D
:101970000790FFE7F8480068022108404008002867
:101980000CD1FFE7FEF7F6FF0799401A032804D3AE
:10199000FFE709A903200870EBE1EBE71DE0F94937
:1019A0000868012290430860FEF7E4FF0790FFE714
:1019B000F448006802210840400800280CD0FFE7E6
:1019C000FEF7D8FF0799401A032804D3FFE709A9B7
:1019D00003200870CDE1EBE7FFE7FFE70898007808
:1019E0004007002800D4BBE001A900200870E648A9
:1019F0000068C000002809D4FFE7E34A116801200D
:101A000003071943116001A90870FFE7DF48006868
:101A1000C00500281DD4FFE7DC4908680122120236
:101A200010430860FEF7A6FF0790FFE7D74800685D
:101A3000C00500280CD4FFE7FEF79CFF0799401A69
:101A4000652804D3FFE709A90320087091E1EDE7B9
:101A5000FFE7FFE70898806801210902884207D163
:101A6000FFE7C849086801221202104308602EE00F
:101A70000898806800280BD1FFE7C2490868012256
:101A800013029843086008689202904308601DE0C2
:101A9000089880680521090288420BD1FFE7B949FF
:101AA0000868012293021843086008681202104374
:101AB00008600AE0B34908680122130298430860ED
:101AC0000868920290430860FFE7FFE7FFE7FFE73F
:101AD0000898806800281BD0FFE7FEF74BFF0790AF
:101AE000FFE7A8480068012149020840400A002891
:101AF0000DD1FFE7FEF73EFF0799401AA44988423F
:101B000004D3FFE709A90320087032E1E9E71AE0EE
:101B1000FEF730FF0790FFE79A480068012149026D
:101B20000840400A00280DD0FFE7FEF723FF079981
:101B3000401A9749884204D3FFE709A90320087097
:101B400017E1E9E7FFE701A80078012807D1FFE7DF
:101B50008D4908680122120790430860FFE7FFE7FC
:101B6000089800788006002854D5FFE70898806917
:101B7000002829D0FFE7FFE78649086801221043C3
:101B80000860864908681043086083490868520362
:101B900010430860FFE7FEF7EDFE0790FFE77D4882
:101BA000006802210840400800280CD1FFE7FEF73A
:101BB000E1FE0799401A032804D3FFE709A903208F
:101BC0000870D6E0EBE724E0FFE7724908680122DD
:101BD0009043086070490868520390430860FFE72B
:101BE000FEF7C8FE0790FFE76A4800680221084038
:101BF000400800280CD0FFE7FEF7BCFE0799401A0A
:101C0000032804D3FFE709A903200870B1E0EBE73C
:101C1000FFE7FFE70898806A002800D1A5E0049854
:101C20000C2872D0FFE70898806A02284CD1FFE7A1
:101C3000534908680122120690430860FEF79AFE95
:101C40000790FFE74E480068012149060840400E12
:101C500000280CD0FFE7FEF78DFE0799401A0328F5
:101C600004D3FFE709A90320087082E0EAE74349AB
:101C70000868FD2212049043089BDA6A1C6B224319
:101C80005B6B1A43104308603D4908680122120645
:101C900010430860FEF76EFE0790FFE738480068C3
:101CA000012149060840400E00280CD1FFE7FEF74D
:101CB00061FE0799401A032804D3FFE709A903200E
:101CC000087056E0EAE71FE02D4908680122120675
:101CD00090430860FEF74EFE0790FFE72848006833
:101CE000012149060840400E00280CD0FFE7FEF70E
:101CF00041FE0799401A032804D3FFE709A90320EE
:101D0000087036E0EAE7FFE72EE00898806A0128CD
:101D100004D1FFE709A9012008702AE017480068EC
:101D2000039003980121090408400899C96A884270
:101D300014D1FFE703980F21890408400899096B23
:101D400088420BD1FFE703980321890508400899D1
:101D5000496B884206D001E05010024009A90120D9
:101D6000087006E0FFE7FFE7FFE709A90020087019
:101D7000FFE709A800780AB010BDC0460C10024069
:101D80000010024050100240381002400070004025
:101D90008913000008100240200001403410024066
:101DA00080B582B00190019800F0AAFE02B080BD1B
:101DB00085B003900291FFE703983821405C012829
:101DC00004D1FFE704A90220087053E003993822E8
:101DD00001208854FFE7FFE7039939220220885445
:101DE000039800684068019003980068806800903C
:101DF0000198702188430190029801680198084376
:101E000001900198039909684860039800680121CE
:101E10008907884212D0FFE7039800687E4988420C
:101E20000CD0FFE7039800687C49884206D0FFE7A2
:101E3000039800687A4988420ED1FFE70098802114
:101E400088430090029841680098084300900098E9
:101E5000039909688860FFE70399392201208854B3
:101E6000FFE70399382200208854FFE704A90020E7
:101E70000870FFE704A8007805B0704780B582B00D
:101E800000900098002804D1FFE701A90120087004
:101E900030E000983921405C002808D1FFE7009924
:101EA000382200208854009800F028F8FFE70099B5
:101EB000392202208854009901C900F0A9FE009936
:101EC0003E2201208854FFE700993A2201208854DD
:101ED00000993B22885400993C22885400993D2265
:101EE0008854FFE7009939220120885401A9002075
:101EF0000870FFE701A8007802B080BD80B58AB005
:101F00000990002008900790069005900490099889
:101F1000006801218907884228D1FFE71449086831
:101F2000012210430860FFE71248026801210A43BA
:101F300002600068084003900398FFE701200490C6
:101F4000022005900021019106910791089005203B
:101F5000000704A9FEF784FB019A0F2002901146A6
:101F6000FEF7E1FE0298FEF7D3FEFFE70AB080BD60
:101F7000381002402C10024083B0019001983921A2
:101F8000405C012804D0FFE702A9012008703EE070
:101F9000019939220220885401980268D0680121F1
:101FA0000843D060019800688907884212D0FFE793
:101FB00001980068184988420CD0FFE70198006832
:101FC0001649884206D0FFE7019800681449884204
:101FD00012D1FFE70198006880680721084000904F
:101FE0000098062807D0FFE70198016808680122D9
:101FF00010430860FFE706E00198016808680122C5
:1020000010430860FFE702A900200870FFE702A85C
:10201000007803B07047C04600040040000801404B
:102020000014014080B586B00490039102A90020FD
:102030000870FFE704983821405C012804D1FFE7CD
:1020400005A902200870AEE00499382201208854C6
:10205000FFE7FFE7049939220220885404980068BA
:102060008068019001987721884301900198FF21B1
:1020700009028843019001980499096888600398CF
:1020800000680090002875D0FFE70098102871D0F4
:10209000FFE7009820286DD0FFE70098302869D02E
:1020A000FFE70098402858D0FFE7009850283AD022
:1020B000FFE70098602843D0FFE7009870280DD014
:1020C000FFE7009801210903884206D0FFE7009846
:1020D00001214903884216D053E056E00498006875
:1020E000039B99685A68DB6800F009FE0498006851
:1020F0008068019001987721084301900198049924
:102100000968886041E004980068039B99685A68F0
:10211000DB6800F0F4FD04980168886801229203EE
:102120001043886031E004980068039A5168D268CF
:1021300000F015FE04980068502100F0FBFD24E03B
:1021400004980068039A5168D26800F091FE0498E0
:102150000068602100F0EEFD17E004980068039A23
:102160005168D26800F0FBFD04980068402100F03F
:10217000E1FD0AE0049800680399096800F0DAFDBF
:1021800003E002A901200870FFE704993922012029
:102190008854FFE70499382200208854FFE702980A
:1021A00005A90870FFE705A8007806B080BD00000B
:1021B00080B582B001902348007800280BD1FFE75A
:1021C00021480068224908602249002008801D49F2
:1021D0000120087033E01B48007801282ED1FFE76A
:1021E000194801681948016000681949096888425E
:1021F00020D9FFE7154800681649098809044018E6
:1022000013490968411A1448016001681348FEF730
:1022100085F80521FEF782F8FEF765F901461048BA
:1022200001600068002101F01BFC002801D1FFE7DC
:10223000FFE7FFE7034900200870FFE7FFE702B070
:1022400080BDC0469C010020340000407400002086
:102250007000002078000020A001002000A24A04A5
:102260007C00002080B586B004900391029201A901
:1022700000200870FFE704983821405C012804D151
:10228000FFE705A90220087082E0049938220120A6
:102290008854FFE7FFE70298002816D1FFE704986B
:1022A0000068039B19685A68DB6800F081FD049898
:1022B000016888690C2290438861039882680498B9
:1022C000016888691043886158E00298042818D191
:1022D000FFE704980068039B19685A68DB6800F000
:1022E000F1FD049801688869032292029043886195
:1022F0000398806802020498016888691043886125
:102300003BE00298082816D1FFE704980068039B79
:1023100019685A68DB6800F00CFE04980168C86907
:102320000C229043C8610398826804980168C869C8
:102330001043C86120E002980C2818D1FFE70498E8
:102340000068039B19685A68DB6800F028FE04984F
:102350000168C869032292029043C86103988068AB
:10236000020204980168C8691043C86103E001A92A
:1023700001200870FFE7FFE7FFE7FFE7FFE70499A9
:10238000382200208854FFE7019805A90870FFE76C
:1023900005A8007806B080BD80B582B00090009896
:1023A000002804D1FFE701A90120087030E000985F
:1023B0003921405C002808D1FFE70099382200202D
:1023C0008854009800F028F8FFE70099392202208D
:1023D0008854009901C900F01BFC00993E2201209D
:1023E0008854FFE700993A220120885400993B2243
:1023F000885400993C22885400993D228854FFE774
:10240000009939220120885401A900200870FFE7B3
:1024100001A8007802B080BD81B0009001B0704783
:1024200080B58EB00C900B910AA9002008700B9813
:10243000002805D1FFE70C983A21405C07901CE08A
:102440000B98042805D1FFE70C983B21405C0690CF
:1024500010E00B98082805D1FFE70C983C21405C60
:10246000059004E00C983D21405C0590FFE705983D
:102470000690FFE706980790FFE7079908A8017004
:102480000078012804D0FFE70DA901200870AEE014
:102490000B98002805D1FFE70C993A2202208854B6
:1024A0001EE00B98042806D1FFE70C993B2202207E
:1024B0008854049012E00B98082806D1FFE70C9985
:1024C0003C2202208854039005E00C993D22022012
:1024D00088540390FFE703980490FFE70498FFE710
:1024E0000B9802900C283BD80298810001A040581C
:1024F0008746C04629250008612500086125000897
:1025000061250008372500086125000861250008BD
:10251000612500084525000861250008612500089F
:1025200061250008532500080C980168C86802223C
:102530001043C86018E00C980168C8680422104372
:10254000C86011E00C980168C86808221043C86090
:102550000AE00C980168C86810221043C86003E0C4
:102560000AA901200870FFE70AA8007800283AD1DC
:10257000FFE70C9800680B990122019200F0A6FB7E
:1025800001990C9800688907884212D0FFE70C98DF
:102590000068194988420CD0FFE70C980068174979
:1025A000884206D0FFE70C9800681549884212D18E
:1025B000FFE70C9800688068072108400990099897
:1025C000062807D0FFE70C9801680868012210432D
:1025D0000860FFE706E00C980168086801221043D4
:1025E0000860FFE7FFE70A980DA90870FFE70DA84C
:1025F00000780EB080BDC0460004004000080140D5
:102600000014014080B582B0019001980068006913
:10261000022108404008002828D0FFE70198006800
:10262000C06802210840400800281ED0FFE701983A
:1026300001680220C04308610199012008760198D1
:10264000006880698007002804D0FFE70198FFF741
:10265000AFFD06E0019800F0D4F8019800F0D5F83D
:10266000FFE7019900200876FFE7FFE7019800687F
:102670000069042108408008002829D0FFE701985C
:102680000068C06804210840800800281FD0FFE7C8
:10269000019801680420C04308610199022008766E
:1026A0000198006880698005800F002804D0FFE74A
:1026B0000198FFF77DFD06E0019800F0A2F801986F
:1026C00000F0A3F8FFE7019900200876FFE7FFE795
:1026D00001980068006908210840C008002828D037
:1026E000FFE701980068C06808210840C00800287A
:1026F0001ED0FFE7019801680820C04308610199D6
:102700000420087601980068C0698007002804D07A
:10271000FFE70198FFF74CFD06E0019800F071F823
:10272000019800F072F8FFE7019900200876FFE7B2
:10273000FFE701980068006910210840000900289F
:1027400029D0FFE701980068C068102108400009FF
:1027500000281FD0FFE7019801681020C0430861DE
:1027600001990820087601980068C0698005800FEB
:10277000002804D0FFE70198FFF71AFD06E0019852
:1027800000F03FF8019800F040F8FFE701990020C1
:102790000876FFE7FFE7019800680069C007002896
:1027A00011D0FFE701980068C068C007002809D071
:1027B000FFE7019801680120C0430861019800F01B
:1027C00029F8FFE7FFE70198006800694021084009
:1027D0008009002813D0FFE701980068C0684021F5
:1027E00008408009002809D0FFE7019801684020CF
:1027F000C0430861019800F017F8FFE7FFE702B057
:1028000080BD81B0009001B0704781B0009001B0F0
:102810007047000081B0009002490888401C088081
:1028200001B070477800002081B0009001B070477F
:1028300080B582B000900098002804D1FFE701A97C
:102840000120087048E000988069002801D0FFE767
:1028500000E0FFE70098C06F002808D1FFE700996B
:10286000782200208854009800F03AF8FFE7009999
:102870002420C86700980168086801229043086016
:10288000009800F079FD012804D1FFE701A901209B
:10289000087021E00098406A002804D0FFE7009803
:1028A00000F0B6FBFFE70098016848680922D202F1
:1028B000904348600098016888682A2290438860A5
:1028C000009801680868012210430860009800F031
:1028D0004DFC01A90870FFE701A8007802B080BD97
:1028E00080B588B007900020069005900490039072
:1028F0000290079800687F49884221D1FFE711497B
:1029000008680122520410430860FFE7214802686A
:1029100001210A4302600068084001900198FFE726
:102920000C200290022003900020049003200590C8
:10293000042006900520000702A9FDF791FEFFE79D
:1029400008B080BD38100240FFE7FEE783B0FFE724
:102950001048026880210A43026000680840029023
:102960000298FFE7FFE70B48026801210A43026073
:102970000068084001900198FFE7FFE705480268FA
:1029800002210A4302600068084000900098FFE7B7
:1029900003B070472C10024080B582B016480190F9
:1029A0001649016016494160002181600122C26020
:1029B000016141618161C1610162FEF77BF800281C
:1029C00003D0FFE7FDF745FEFFE70B480021FDF7C9
:1029D000D5FF002803D0FFE7FDF73BFEFFE70648E1
:1029E0000021FEF716F8002803D0FFE7FDF731FEBF
:1029F000FFE702B080BDC0468000002000540040C8
:102A0000380F300080B58CB0002101910B910A91F4
:102A10000991089107910691059104910391029102
:102A20007A4801229207026041608160204AC260B8
:102A3000016180214161FFF721FA002803D0FFE7FF
:102A4000FDF707FEFFE70120000308906F4808A983
:102A5000FFF7E8FA002803D0FFE7FDF7FAFDFFE7EC
:102A60006A48FFF799FC002803D0FFE7FDF7F1FD66
:102A7000FFE7002006900790644806A9FFF798F941
:102A8000002803D0FFE7FDF7E4FDFFE700220292F4
:102A900001200390049205925C4802A9FFF7E2FB33
:102AA000002803D0FFE7FDF7D4FDFFE70CB080BDA1
:102AB000FFFF000080B582B00D4801900D49016014
:102AC000E1214902416000218160C16001610C2265
:102AD00042618161C16101624162FFF7A9FE002884
:102AE00003D0FFE7FDF7B5FDFFE702B080BDC046AC
:102AF0001401002000440040FFE7FEE770477047E4
:102B000080B584B002900298401E000E002803D0C9
:102B1000FFE70120039011E00298401E0949086078
:102B200000200190C043032100F03AFF01980649BC
:102B30000860064A072111600390FFE7039804B07C
:102B400080BDC04614E000E018E000E010E000E0C6
:102B500080B5FEF76DF880BDB0B59EB010A80090AE
:102B60003821FDF7D9FB00200F900E900D900C90AE
:102B70000B9001A82821FDF7CFFB00981E4C23687D
:102B80000322D1028B430121CD025B1923601091F6
:102B90000B04119302241A941B9392041C9289052E
:102BA0001D91FEF7C5FC002803D0FFE7FDF751FD9E
:102BB000FFE70F200B9003200C9000200D900E904B
:102BC0000F900BA80121FEF773FA002803D0FFE74E
:102BD000FDF73FFDFFE70A200190002005900790D8
:102BE00001A8FEF7AFF8002803D0FFE7FDF731FD9D
:102BF000FFE71EB0B0BDC046007000407047000047
:102C000080B50248FFF7FEFC80BDC046D40000201E
:102C100083B002900191029800680090029801210F
:102C2000890788420FD0FFE702988E4988420AD070
:102C3000FFE702988C49884205D0FFE702982249B5
:102C400088420AD1FFE700987021884300900198DC
:102C50004168009808430090FFE702980121890726
:102C600088420FD0FFE702987E4988420AD0FFE7EA
:102C700002987D49884205D0FFE7029812498842B0
:102C80000BD1FFE7009803210902884300900198C7
:102C9000C168009808430090FFE7009880218843AE
:102CA0000199096908430090009802990860019809
:102CB00080680299C8620198006802998862029946
:102CC0000120486103B070470014014084B00390B4
:102CD00002910192029A1F210A4001209040009027
:102CE000009B039A106A98431062019A0298084068
:102CF00082400399086A1043086204B0704785B0A7
:102D000004900391029201930498806800900098C7
:102D1000FF2109028843009003990298019A120248
:102D2000104301430098084300900098049988607C
:102D300005B0704783B002900191029880680090BE
:102D4000009870218843009001980099084307215A
:102D50000843009000980299886003B0704785B0DE
:102D60000490039102920498006A00900499086A02
:102D70000122904308620498806901900198F02133
:102D8000884301900298010101980843019000983E
:102D90000A21884300900399009808430090019805
:102DA0000499886100980499086205B07047000092
:102DB00087B00690059104920393069A116A012048
:102DC000814311620699896902910699096A019104
:102DD000069982079142009015D0FFE706990120DD
:102DE000204A914200900ED0FFE7069901201E4A2A
:102DF0009142009007D0FFE706981C4940184142D5
:102E000048410090FFE70098C007002809D0FFE77D
:102E10000298032188430290049902980843029083
:102E200004E00298012108430290FFE70298F02194
:102E30008843029003980001C1B2029808430290AF
:102E400001990A20814301910599014001980843A5
:102E5000019002980699886101980699086207B066
:102E60007047C046000400400008014000ECFEBF6F
:102E700085B00490039102920499086A102290434D
:102E800008620498806901900498006A0090019893
:102E90000F21090388430190029801030198084318
:102EA00001900098A02188430090039801010098A8
:102EB0000843009001980499886100980499086279
:102EC00005B0704786B0059004910392029305996E
:102ED000086A10229043086205988069019005985D
:102EE000006A009001980321090288430190039829
:102EF000010201980843019001980F2109038843BA
:102F000001900298000381B2019808430190009952
:102F1000A0208143009104990901014000980843D1
:102F2000009001980599886100980599086206B09B
:102F3000704786B005900491039202930599086A40
:102F400001221202904308620598C0690190059819
:102F5000006A009001980321884301900399019829
:102F6000084301900198F0218843019002980001E4
:102F7000C1B20198084301900099052040028143A5
:102F800000910499090201400098084300900198BB
:102F90000599C86100980599086206B0704786B027
:102FA00005900491039202930599086A0122120385
:102FB000904308620598C06901900598006A0090E6
:102FC00001980321090288430190039801020198A6
:102FD0000843019001980F2109038843019002984A
:102FE000000381B201980843019000990520400335
:102FF000814300910499090301400098084300901F
:1030000001980599C86100980599086206B0704753
:1030100081B0009000982421405CC00700280CD0AB
:10302000FFE700980068406801214904884300993F
:103030008A6A104309684860FFE700982421405CD1
:10304000800700280CD5FFE7009800684068012140
:10305000090488430099CA6A104309684860FFE779
:1030600000982421405C400700280CD5FFE7009819
:103070000068406801218904884300990A6B104365
:1030800009684860FFE700982421405C0007002899
:103090000CD5FFE70098006840680121C903884308
:1030A00000994A6B104309684860FFE700982421A3
:1030B000405CC00600280CD5FFE7009800688068D7
:1030C00001210903884300998A6B104309688860CD
:1030D000FFE700982421405C800600280CD5FFE71C
:1030E0000098006880680121490388430099CA6BF1
:1030F000104309688860FFE700982421405C40067F
:1031000000281DD5FFE700980068406801210905E7
:103110008843009A136C1843126850600098006C42
:1031200088420CD1FFE700980068406803214905F8
:10313000884300994A6C104309684860FFE7FFE73D
:1031400000982421405C000600280CD5FFE7009879
:10315000006840680121C904884300998A6C1043C3
:1031600009684860FFE701B07047000080B590B083
:1031700005900599842200208850FDF7FBFB049000
:103180000598006800680007002831D5FFE705981A
:10319000049B4C49009101214905002200F06EFB7F
:1031A000002824D0FFE7FFE7EFF31080099009988B
:1031B000039001200F900F9880F310880598016804
:1031C000086880229043086003980E900E9880F360
:1031D0001088FFE705992020C867FFE70599782246
:1031E00000208854FFE706A90320087065E0FFE788
:1031F0000598006800684007002849D5FFE7059852
:10320000049B3049009101218905002200F036FB22
:1032100000283CD0FFE7FFE7EFF310800890089804
:10322000029001200D900D9880F310880598016898
:103230000868092252019043086002980C900C988B
:1032400080F31088FFE7FFE7EFF3108007900798FF
:10325000019001220B920B9880F310880598016869
:1032600088689043886001980A900A9880F31088D3
:10327000FFE70599802220208850FFE705997822F2
:1032800000208854FFE706A90320087015E0FFE737
:1032900005992020C867059980228850059900204B
:1032A000086605994866FFE705997822002088544A
:1032B000FFE706A900200870FFE706A8007810B015
:1032C00080BDC046FFFFFF018DB00390FFE7EFF325
:1032D000108006900698029001200C900C9880F3C4
:1032E0001088039801680868092252019043086019
:1032F00002980B900B9880F31088FFE7FFE7EFF33D
:10330000108005900598019001220A920A9880F396
:103310001088039801688868904388600198099034
:10332000099880F31088FFE70398006E012818D1F0
:10333000FFE7FFE7EFF3108004900498009001206E
:103340000890089880F31088039801680868102294
:103350009043086000980790079880F31088FFE773
:10336000FFE70399802220208850039900200866F7
:10337000039988660DB0704710B58EB00D9008A9FE
:10338000002008700D980068D549884201D1FFE7F8
:1033900000E0FFE70D9988680A6910434A69104305
:1033A000C96908430C900D9800680068F749084007
:1033B0000C9908430D99096808600D9800684068E9
:1033C0000321090388430D99CA68104309684860BE
:1033D0000D9880690C900D980068C149884206D00C
:1033E000FFE70D98016A0C9808430C90FFE70D98D1
:1033F000006880680B21090288430C9908430D99E5
:1034000009688860FFE70D980068EE4988422AD174
:10341000FFE7ED48006803210840069003281DD807
:103420000698810001A040588746C0463D340008F8
:103430004D34000845340008553400080AA901201D
:1034400008700FE00AA9022008700BE00AA9042006
:10345000087007E00AA90820087003E00AA91020F4
:103460000870FFE793E00D980068FD4988423CD161
:10347000FFE7D54800680C21084005900C282FD89C
:103480000598810001A040588746C046C134000815
:10349000E1340008E1340008E1340008D1340008C8
:1034A000E1340008E1340008E1340008C9340008C0
:1034B000E1340008E1340008E1340008D9340008A0
:1034C0000AA9002008700FE00AA9022008700BE08A
:1034D0000AA90420087007E00AA90820087003E080
:1034E0000AA910200870FFE750E00D980068DD4938
:1034F000884204D1FFE70AA90020087045E00D9832
:103500000068D949884204D1FFE70AA90020087061
:103510003AE00D980068D149884230D1FFE7D3489E
:1035200000680321890208400490002812D0FFE7B8
:10353000049801218902884214D0FFE704980121F0
:10354000C90288420AD0FFE7049803218902884211
:103550000CD00FE00AA9002008700FE00AA9022091
:1035600008700BE00AA90420087007E00AA90820E7
:10357000087003E00AA910200870FFE703E00AA919
:1035800010200870FFE7FFE7FFE7FFE7FFE7FFE72F
:103590000D980068B149884276D1FFE70AA8007803
:1035A0000390082831D80398810001A0405887462D
:1035B000D53500080B360008DD3500080B3600084D
:1035C000FB3500080B3600080B3600080B360008E8
:1035D00003360008FDF7EEFE07901CE0A4480068E3
:1035E000102108400009002803D0FFE7A2480790F7
:1035F00002E0A0480790FFE70DE0FDF7FBFE079013
:1036000009E00120C003079005E00020079008A909
:1036100001200870FFE70798002834D0FFE70798DB
:103620000D994A6803215143884207D3FFE7079861
:103630000D9949680903884204D9FFE708A90120C8
:1036400008701FE00798010E00020D9A5268540896
:10365000002300195941FCF7B9FD09900998000AA7
:1036600003280AD3FFE70998000D002805D1FFE7DA
:1036700009980D990968C86003E008A9012008703D
:10368000FFE7FFE7FFE7E0E00D98C0690121C9030C
:10369000884271D1FFE70AA800780290082838D83C
:1036A0000298810001A040588746C046D1360008E4
:1036B000D9360008E536000813370008033700083C
:1036C0001337000813370008133700080B370008BA
:1036D000FDF770FE079022E0FDF77AFE07901EE0EE
:1036E0000048004062480068102108400009002896
:1036F00003D0FFE76048079002E05E480790FFE7CD
:103700000DE0FDF777FE079009E00120C003079068
:1037100005E00020079008A901200870FFE707983E
:10372000002828D0FFE7079840000D9949684A080B
:103730008018FCF7F3FD09900998102816D3FFE7CD
:1037400009A84088002811D1FFE709990F2081437B
:103750000BA8018009990E2211404A080B991143C8
:10376000018000880D990968C86003E008A901205C
:103770000870FFE7FFE767E00AA8007801900828D3
:103780003BD80198810002A040588746F369FFEFBB
:10379000B5370008BD370008CD370008FB370008F3
:1037A000EB370008FB370008FB370008FB37000841
:1037B000F3370008FDF7FEFD079024E0FDF708FE53
:1037C000079020E0003801404C1002402848006873
:1037D000102108400009002803D0FFE72648079081
:1037E00002E024480790FFE70DE0FDF703FE079095
:1037F00009E00120C003079005E00020079008A918
:1038000001200870FFE7079800281CD0FFE7079801
:103810000D9949684A088018FCF780FD09900998BD
:1038200010280BD3FFE709A84088002806D1FFE73E
:1038300009A800880D990968C86003E008A901205B
:103840000870FFE7FFE7FFE7FFE70D9900208866B4
:103850000D99C86608A800780EB010BD0048004059
:1038600000440040004C0040005000404C1002401A
:10387000001002400024F40000093D0010B586B09D
:10388000089C0490039102A802700193FFE704983A
:103890000068C06903990840401A4142484102A9A2
:1038A000097888425ED1FFE70898401C002858D06C
:1038B000FFE7FDF75FF80199401A0899884204D89C
:1038C000FFE70898002804D1FFE705A90320087046
:1038D0004CE00498006800684007002840D5FFE7E6
:1038E00004980068C06908210840C008012816D162
:1038F000FFE7049801680820009008620498FFF729
:10390000E3FC0098049984228850FFE70499782208
:1039100000208854FFE705A90120087026E00498DC
:103920000068C0690121C9020840C00A012816D1F7
:10393000FFE7049801680120C00208620498FFF7BD
:10394000C3FC0499842220208850FFE70499782240
:1039500000208854FFE705A90320087006E0FFE770
:10396000FFE794E705A900200870FFE705A80078A5
:1039700006B010BD81B00146684601700021405676
:10398000002809D4FFE7684601781F200140012084
:10399000884002490860FFE701B0704700E100E09D
:1039A00070B582B0024601A8027000910021405615
:1039B000002816D4FFE7002401A908570322D343A7
:1039C0001840174A805809578C07E50EFF24AC4071
:1039D000A043009CA401E4B2AC40204319408850AD
:1039E0001AE001A908780F24204008380322D343A5
:1039F00018400A4A8058002549578D07EE0EFF25CA
:103A0000B540A843009DAD01EDB2B540284321402B
:103A1000083919408850FFE702B070BD1CED00E086
:103A200000E400E080B584B0002001900390FDF731
:103A300009F9FFF791F8FEF789FFFEF7E3FFFFF7BB
:103A400039F8FEF7A9FF05480290FEF795FA0199AB
:103A50000298FEF7E5FCFFE7FEE7C046D400002031
:103A600010B500F009F8EFF30080400001D5012007
:103A700010BD002010BD00000123DB0502000A4339
:103A80000DD4DA4203D49A4207D488427047D84210
:103A900014D4D94212D48842704780427047DA4227
:103AA00003D59A42F9D5814270475B004200DA4261
:103AB00004D24A00DA4201D28142704710B5024A6C
:103AC000FCF714FD10BD00BF090012040000000047
:103AD00000000000010203040607080900000000BE
:103AE00001020304030406080C1018203000000033
:103AF000103B000800000020100000000401000836
:103B0000203B00081000002098070000200100085A
:103B10000000200001000000040000000000000080
:04000005080000C12E
:00000001FF
